{"contracts/MetaCert.sol":{"CertificateNFT":{"abi":[{"anonymous":false,"inputs":[{"indexed":true,"internalType":"address","name":"owner","type":"address"},{"indexed":true,"internalType":"uint256","name":"tokenId","type":"uint256"},{"indexed":false,"internalType":"uint256","name":"score","type":"uint256"}],"name":"Certification","type":"event"},{"anonymous":false,"inputs":[{"indexed":true,"internalType":"address","name":"from","type":"address"},{"indexed":true,"internalType":"address","name":"to","type":"address"},{"indexed":true,"internalType":"uint256","name":"tokenId","type":"uint256"}],"name":"Transfer","type":"event"},{"inputs":[{"internalType":"address","name":"certOwner","type":"address"}],"name":"balanceOf","outputs":[{"internalType":"uint256","name":"","type":"uint256"}],"stateMutability":"view","type":"function"},{"inputs":[{"internalType":"address","name":"certOwner","type":"address"}],"name":"certificatesOfOwner","outputs":[{"internalType":"uint256[]","name":"certificates","type":"uint256[]"},{"internalType":"uint256[]","name":"scores","type":"uint256[]"}],"stateMutability":"view","type":"function"},{"inputs":[{"internalType":"uint256","name":"tokenId","type":"uint256"}],"name":"getCertificateScore","outputs":[{"internalType":"uint256","name":"","type":"uint256"}],"stateMutability":"view","type":"function"},{"inputs":[{"internalType":"address","name":"to","type":"address"},{"internalType":"uint256","name":"score","type":"uint256"}],"name":"mint","outputs":[],"stateMutability":"nonpayable","type":"function"},{"inputs":[],"name":"name","outputs":[{"internalType":"string","name":"","type":"string"}],"stateMutability":"view","type":"function"},{"inputs":[{"internalType":"uint256","name":"tokenId","type":"uint256"}],"name":"ownerOf","outputs":[{"internalType":"address","name":"","type":"address"}],"stateMutability":"view","type":"function"},{"inputs":[],"name":"symbol","outputs":[{"internalType":"string","name":"","type":"string"}],"stateMutability":"view","type":"function"},{"inputs":[],"name":"totalSupply","outputs":[{"internalType":"uint256","name":"","type":"uint256"}],"stateMutability":"view","type":"function"}],"evm":{"bytecode":{"linkReferences":{},"object":"60806040526040518060400160405280600e81526020017f43657274696669636174654e4654000000000000000000000000000000000000815250600090816200004a919062000320565b506040518060400160405280600481526020017f43455254000000000000000000000000000000000000000000000000000000008152506001908162000091919062000320565b503480156200009f57600080fd5b5062000407565b600081519050919050565b7f4e487b7100000000000000000000000000000000000000000000000000000000600052604160045260246000fd5b7f4e487b7100000000000000000000000000000000000000000000000000000000600052602260045260246000fd5b600060028204905060018216806200012857607f821691505b6020821081036200013e576200013d620000e0565b5b50919050565b60008190508160005260206000209050919050565b60006020601f8301049050919050565b600082821b905092915050565b600060088302620001a87fffffffffffffffffffffffffffffffffffffffffffffffffffffffffffffffff8262000169565b620001b4868362000169565b95508019841693508086168417925050509392505050565b6000819050919050565b6000819050919050565b600062000201620001fb620001f584620001cc565b620001d6565b620001cc565b9050919050565b6000819050919050565b6200021d83620001e0565b620002356200022c8262000208565b84845462000176565b825550505050565b600090565b6200024c6200023d565b6200025981848462000212565b505050565b5b8181101562000281576200027560008262000242565b6001810190506200025f565b5050565b601f821115620002d0576200029a8162000144565b620002a58462000159565b81016020851015620002b5578190505b620002cd620002c48562000159565b8301826200025e565b50505b505050565b600082821c905092915050565b6000620002f560001984600802620002d5565b1980831691505092915050565b6000620003108383620002e2565b9150826002028217905092915050565b6200032b82620000a6565b67ffffffffffffffff811115620003475762000346620000b1565b5b6200035382546200010f565b6200036082828562000285565b600060209050601f83116001811462000398576000841562000383578287015190505b6200038f858262000302565b865550620003ff565b601f198416620003a88662000144565b60005b82811015620003d257848901518255600182019150602085019450602081019050620003ab565b86831015620003f25784890151620003ee601f891682620002e2565b8355505b6001600288020188555050505b505050505050565b610c8a80620004176000396000f3fe608060405234801561001057600080fd5b50600436106100885760003560e01c806340c10f191161005b57806340c10f191461012a5780636352211e1461014657806370a082311461017657806395d89b41146101a657610088565b806306fdde031461008d57806318160ddd146100ab5780633a73c0b7146100c95780633ee8eb6e146100fa575b600080fd5b6100956101c4565b6040516100a2919061084d565b60405180910390f35b6100b3610256565b6040516100c09190610888565b60405180910390f35b6100e360048036038101906100de9190610906565b610260565b6040516100f19291906109f1565b60405180910390f35b610114600480360381019061010f9190610a54565b61042a565b6040516101219190610888565b60405180910390f35b610144600480360381019061013f9190610a81565b610447565b005b610160600480360381019061015b9190610a54565b6106a5565b60405161016d9190610ad0565b60405180910390f35b610190600480360381019061018b9190610906565b6106e2565b60405161019d9190610888565b60405180910390f35b6101ae61072b565b6040516101bb919061084d565b60405180910390f35b6060600080546101d390610b1a565b80601f01602080910402602001604051908101604052809291908181526020018280546101ff90610b1a565b801561024c5780601f106102215761010080835404028352916020019161024c565b820191906000526020600020905b81548152906001019060200180831161022f57829003601f168201915b5050505050905090565b6000600254905090565b6060806000600660008573ffffffffffffffffffffffffffffffffffffffff1673ffffffffffffffffffffffffffffffffffffffff1681526020019081526020016000205490508067ffffffffffffffff8111156102c1576102c0610b4b565b5b6040519080825280602002602001820160405280156102ef5781602001602082028036833780820191505090505b5092508067ffffffffffffffff81111561030c5761030b610b4b565b5b60405190808252806020026020018201604052801561033a5781602001602082028036833780820191505090505b50915060005b8181101561042357600460008673ffffffffffffffffffffffffffffffffffffffff1673ffffffffffffffffffffffffffffffffffffffff168152602001908152602001600020818154811061039957610398610b7a565b5b90600052602060002001548482815181106103b7576103b6610b7a565b5b602002602001018181525050600760008583815181106103da576103d9610b7a565b5b602002602001015181526020019081526020016000205483828151811061040457610403610b7a565b5b602002602001018181525050808061041b90610bd8565b915050610340565b5050915091565b600060076000838152602001908152602001600020549050919050565b6002600081548092919061045a90610bd8565b9190505550600660008373ffffffffffffffffffffffffffffffffffffffff1673ffffffffffffffffffffffffffffffffffffffff16815260200190815260200160002060008154809291906104af90610bd8565b91905055508160036000600254815260200190815260200160002060006101000a81548173ffffffffffffffffffffffffffffffffffffffff021916908373ffffffffffffffffffffffffffffffffffffffff1602179055508060076000600254815260200190815260200160002081905550600460008373ffffffffffffffffffffffffffffffffffffffff1673ffffffffffffffffffffffffffffffffffffffff16815260200190815260200160002060025490806001815401808255809150506001900390600052602060002001600090919091909150556001600460008473ffffffffffffffffffffffffffffffffffffffff1673ffffffffffffffffffffffffffffffffffffffff168152602001908152602001600020805490506105d99190610c20565b600560006002548152602001908152602001600020819055506002548273ffffffffffffffffffffffffffffffffffffffff16600073ffffffffffffffffffffffffffffffffffffffff167fddf252ad1be2c89b69c2b068fc378daa952ba7f163c4a11628f55a4df523b3ef60405160405180910390a46002548273ffffffffffffffffffffffffffffffffffffffff167f08055969caa4958bed8eedfc49abfc0503d2bebf2735898fc63aca86cf35ad1f836040516106999190610888565b60405180910390a35050565b60006003600083815260200190815260200160002060009054906101000a900473ffffffffffffffffffffffffffffffffffffffff169050919050565b6000600660008373ffffffffffffffffffffffffffffffffffffffff1673ffffffffffffffffffffffffffffffffffffffff168152602001908152602001600020549050919050565b60606001805461073a90610b1a565b80601f016020809104026020016040519081016040528092919081815260200182805461076690610b1a565b80156107b35780601f10610788576101008083540402835291602001916107b3565b820191906000526020600020905b81548152906001019060200180831161079657829003601f168201915b5050505050905090565b600081519050919050565b600082825260208201905092915050565b60005b838110156107f75780820151818401526020810190506107dc565b60008484015250505050565b6000601f19601f8301169050919050565b600061081f826107bd565b61082981856107c8565b93506108398185602086016107d9565b61084281610803565b840191505092915050565b600060208201905081810360008301526108678184610814565b905092915050565b6000819050919050565b6108828161086f565b82525050565b600060208201905061089d6000830184610879565b92915050565b600080fd5b600073ffffffffffffffffffffffffffffffffffffffff82169050919050565b60006108d3826108a8565b9050919050565b6108e3816108c8565b81146108ee57600080fd5b50565b600081359050610900816108da565b92915050565b60006020828403121561091c5761091b6108a3565b5b600061092a848285016108f1565b91505092915050565b600081519050919050565b600082825260208201905092915050565b6000819050602082019050919050565b6109688161086f565b82525050565b600061097a838361095f565b60208301905092915050565b6000602082019050919050565b600061099e82610933565b6109a8818561093e565b93506109b38361094f565b8060005b838110156109e45781516109cb888261096e565b97506109d683610986565b9250506001810190506109b7565b5085935050505092915050565b60006040820190508181036000830152610a0b8185610993565b90508181036020830152610a1f8184610993565b90509392505050565b610a318161086f565b8114610a3c57600080fd5b50565b600081359050610a4e81610a28565b92915050565b600060208284031215610a6a57610a696108a3565b5b6000610a7884828501610a3f565b91505092915050565b60008060408385031215610a9857610a976108a3565b5b6000610aa6858286016108f1565b9250506020610ab785828601610a3f565b9150509250929050565b610aca816108c8565b82525050565b6000602082019050610ae56000830184610ac1565b92915050565b7f4e487b7100000000000000000000000000000000000000000000000000000000600052602260045260246000fd5b60006002820490506001821680610b3257607f821691505b602082108103610b4557610b44610aeb565b5b50919050565b7f4e487b7100000000000000000000000000000000000000000000000000000000600052604160045260246000fd5b7f4e487b7100000000000000000000000000000000000000000000000000000000600052603260045260246000fd5b7f4e487b7100000000000000000000000000000000000000000000000000000000600052601160045260246000fd5b6000610be38261086f565b91507fffffffffffffffffffffffffffffffffffffffffffffffffffffffffffffffff8203610c1557610c14610ba9565b5b600182019050919050565b6000610c2b8261086f565b9150610c368361086f565b9250828203905081811115610c4e57610c4d610ba9565b5b9291505056fea2646970667358221220ca588b88e3bc8867a02b95db03512d801475f3624e305e9a849b0e2880639c8f64736f6c63430008120033","opcodes":"PUSH1 0x80 PUSH1 0x40 MSTORE PUSH1 0x40 MLOAD DUP1 PUSH1 0x40 ADD PUSH1 0x40 MSTORE DUP1 PUSH1 0xE DUP2 MSTORE PUSH1 0x20 ADD PUSH32 0x43657274696669636174654E4654000000000000000000000000000000000000 DUP2 MSTORE POP PUSH1 0x0 SWAP1 DUP2 PUSH3 0x4A SWAP2 SWAP1 PUSH3 0x320 JUMP JUMPDEST POP PUSH1 0x40 MLOAD DUP1 PUSH1 0x40 ADD PUSH1 0x40 MSTORE DUP1 PUSH1 0x4 DUP2 MSTORE PUSH1 0x20 ADD PUSH32 0x4345525400000000000000000000000000000000000000000000000000000000 DUP2 MSTORE POP PUSH1 0x1 SWAP1 DUP2 PUSH3 0x91 SWAP2 SWAP1 PUSH3 0x320 JUMP JUMPDEST POP CALLVALUE DUP1 ISZERO PUSH3 0x9F JUMPI PUSH1 0x0 DUP1 REVERT JUMPDEST POP PUSH3 0x407 JUMP JUMPDEST PUSH1 0x0 DUP2 MLOAD SWAP1 POP SWAP2 SWAP1 POP JUMP JUMPDEST PUSH32 0x4E487B7100000000000000000000000000000000000000000000000000000000 PUSH1 0x0 MSTORE PUSH1 0x41 PUSH1 0x4 MSTORE PUSH1 0x24 PUSH1 0x0 REVERT JUMPDEST PUSH32 0x4E487B7100000000000000000000000000000000000000000000000000000000 PUSH1 0x0 MSTORE PUSH1 0x22 PUSH1 0x4 MSTORE PUSH1 0x24 PUSH1 0x0 REVERT JUMPDEST PUSH1 0x0 PUSH1 0x2 DUP3 DIV SWAP1 POP PUSH1 0x1 DUP3 AND DUP1 PUSH3 0x128 JUMPI PUSH1 0x7F DUP3 AND SWAP2 POP JUMPDEST PUSH1 0x20 DUP3 LT DUP2 SUB PUSH3 0x13E JUMPI PUSH3 0x13D PUSH3 0xE0 JUMP JUMPDEST JUMPDEST POP SWAP2 SWAP1 POP JUMP JUMPDEST PUSH1 0x0 DUP2 SWAP1 POP DUP2 PUSH1 0x0 MSTORE PUSH1 0x20 PUSH1 0x0 KECCAK256 SWAP1 POP SWAP2 SWAP1 POP JUMP JUMPDEST PUSH1 0x0 PUSH1 0x20 PUSH1 0x1F DUP4 ADD DIV SWAP1 POP SWAP2 SWAP1 POP JUMP JUMPDEST PUSH1 0x0 DUP3 DUP3 SHL SWAP1 POP SWAP3 SWAP2 POP POP JUMP JUMPDEST PUSH1 0x0 PUSH1 0x8 DUP4 MUL PUSH3 0x1A8 PUSH32 0xFFFFFFFFFFFFFFFFFFFFFFFFFFFFFFFFFFFFFFFFFFFFFFFFFFFFFFFFFFFFFFFF DUP3 PUSH3 0x169 JUMP JUMPDEST PUSH3 0x1B4 DUP7 DUP4 PUSH3 0x169 JUMP JUMPDEST SWAP6 POP DUP1 NOT DUP5 AND SWAP4 POP DUP1 DUP7 AND DUP5 OR SWAP3 POP POP POP SWAP4 SWAP3 POP POP POP JUMP JUMPDEST PUSH1 0x0 DUP2 SWAP1 POP SWAP2 SWAP1 POP JUMP JUMPDEST PUSH1 0x0 DUP2 SWAP1 POP SWAP2 SWAP1 POP JUMP JUMPDEST PUSH1 0x0 PUSH3 0x201 PUSH3 0x1FB PUSH3 0x1F5 DUP5 PUSH3 0x1CC JUMP JUMPDEST PUSH3 0x1D6 JUMP JUMPDEST PUSH3 0x1CC JUMP JUMPDEST SWAP1 POP SWAP2 SWAP1 POP JUMP JUMPDEST PUSH1 0x0 DUP2 SWAP1 POP SWAP2 SWAP1 POP JUMP JUMPDEST PUSH3 0x21D DUP4 PUSH3 0x1E0 JUMP JUMPDEST PUSH3 0x235 PUSH3 0x22C DUP3 PUSH3 0x208 JUMP JUMPDEST DUP5 DUP5 SLOAD PUSH3 0x176 JUMP JUMPDEST DUP3 SSTORE POP POP POP POP JUMP JUMPDEST PUSH1 0x0 SWAP1 JUMP JUMPDEST PUSH3 0x24C PUSH3 0x23D JUMP JUMPDEST PUSH3 0x259 DUP2 DUP5 DUP5 PUSH3 0x212 JUMP JUMPDEST POP POP POP JUMP JUMPDEST JUMPDEST DUP2 DUP2 LT ISZERO PUSH3 0x281 JUMPI PUSH3 0x275 PUSH1 0x0 DUP3 PUSH3 0x242 JUMP JUMPDEST PUSH1 0x1 DUP2 ADD SWAP1 POP PUSH3 0x25F JUMP JUMPDEST POP POP JUMP JUMPDEST PUSH1 0x1F DUP3 GT ISZERO PUSH3 0x2D0 JUMPI PUSH3 0x29A DUP2 PUSH3 0x144 JUMP JUMPDEST PUSH3 0x2A5 DUP5 PUSH3 0x159 JUMP JUMPDEST DUP2 ADD PUSH1 0x20 DUP6 LT ISZERO PUSH3 0x2B5 JUMPI DUP2 SWAP1 POP JUMPDEST PUSH3 0x2CD PUSH3 0x2C4 DUP6 PUSH3 0x159 JUMP JUMPDEST DUP4 ADD DUP3 PUSH3 0x25E JUMP JUMPDEST POP POP JUMPDEST POP POP POP JUMP JUMPDEST PUSH1 0x0 DUP3 DUP3 SHR SWAP1 POP SWAP3 SWAP2 POP POP JUMP JUMPDEST PUSH1 0x0 PUSH3 0x2F5 PUSH1 0x0 NOT DUP5 PUSH1 0x8 MUL PUSH3 0x2D5 JUMP JUMPDEST NOT DUP1 DUP4 AND SWAP2 POP POP SWAP3 SWAP2 POP POP JUMP JUMPDEST PUSH1 0x0 PUSH3 0x310 DUP4 DUP4 PUSH3 0x2E2 JUMP JUMPDEST SWAP2 POP DUP3 PUSH1 0x2 MUL DUP3 OR SWAP1 POP SWAP3 SWAP2 POP POP JUMP JUMPDEST PUSH3 0x32B DUP3 PUSH3 0xA6 JUMP JUMPDEST PUSH8 0xFFFFFFFFFFFFFFFF DUP2 GT ISZERO PUSH3 0x347 JUMPI PUSH3 0x346 PUSH3 0xB1 JUMP JUMPDEST JUMPDEST PUSH3 0x353 DUP3 SLOAD PUSH3 0x10F JUMP JUMPDEST PUSH3 0x360 DUP3 DUP3 DUP6 PUSH3 0x285 JUMP JUMPDEST PUSH1 0x0 PUSH1 0x20 SWAP1 POP PUSH1 0x1F DUP4 GT PUSH1 0x1 DUP2 EQ PUSH3 0x398 JUMPI PUSH1 0x0 DUP5 ISZERO PUSH3 0x383 JUMPI DUP3 DUP8 ADD MLOAD SWAP1 POP JUMPDEST PUSH3 0x38F DUP6 DUP3 PUSH3 0x302 JUMP JUMPDEST DUP7 SSTORE POP PUSH3 0x3FF JUMP JUMPDEST PUSH1 0x1F NOT DUP5 AND PUSH3 0x3A8 DUP7 PUSH3 0x144 JUMP JUMPDEST PUSH1 0x0 JUMPDEST DUP3 DUP2 LT ISZERO PUSH3 0x3D2 JUMPI DUP5 DUP10 ADD MLOAD DUP3 SSTORE PUSH1 0x1 DUP3 ADD SWAP2 POP PUSH1 0x20 DUP6 ADD SWAP5 POP PUSH1 0x20 DUP2 ADD SWAP1 POP PUSH3 0x3AB JUMP JUMPDEST DUP7 DUP4 LT ISZERO PUSH3 0x3F2 JUMPI DUP5 DUP10 ADD MLOAD PUSH3 0x3EE PUSH1 0x1F DUP10 AND DUP3 PUSH3 0x2E2 JUMP JUMPDEST DUP4 SSTORE POP JUMPDEST PUSH1 0x1 PUSH1 0x2 DUP9 MUL ADD DUP9 SSTORE POP POP POP JUMPDEST POP POP POP POP POP POP JUMP JUMPDEST PUSH2 0xC8A DUP1 PUSH3 0x417 PUSH1 0x0 CODECOPY PUSH1 0x0 RETURN INVALID PUSH1 0x80 PUSH1 0x40 MSTORE CALLVALUE DUP1 ISZERO PUSH2 0x10 JUMPI PUSH1 0x0 DUP1 REVERT JUMPDEST POP PUSH1 0x4 CALLDATASIZE LT PUSH2 0x88 JUMPI PUSH1 0x0 CALLDATALOAD PUSH1 0xE0 SHR DUP1 PUSH4 0x40C10F19 GT PUSH2 0x5B JUMPI DUP1 PUSH4 0x40C10F19 EQ PUSH2 0x12A JUMPI DUP1 PUSH4 0x6352211E EQ PUSH2 0x146 JUMPI DUP1 PUSH4 0x70A08231 EQ PUSH2 0x176 JUMPI DUP1 PUSH4 0x95D89B41 EQ PUSH2 0x1A6 JUMPI PUSH2 0x88 JUMP JUMPDEST DUP1 PUSH4 0x6FDDE03 EQ PUSH2 0x8D JUMPI DUP1 PUSH4 0x18160DDD EQ PUSH2 0xAB JUMPI DUP1 PUSH4 0x3A73C0B7 EQ PUSH2 0xC9 JUMPI DUP1 PUSH4 0x3EE8EB6E EQ PUSH2 0xFA JUMPI JUMPDEST PUSH1 0x0 DUP1 REVERT JUMPDEST PUSH2 0x95 PUSH2 0x1C4 JUMP JUMPDEST PUSH1 0x40 MLOAD PUSH2 0xA2 SWAP2 SWAP1 PUSH2 0x84D JUMP JUMPDEST PUSH1 0x40 MLOAD DUP1 SWAP2 SUB SWAP1 RETURN JUMPDEST PUSH2 0xB3 PUSH2 0x256 JUMP JUMPDEST PUSH1 0x40 MLOAD PUSH2 0xC0 SWAP2 SWAP1 PUSH2 0x888 JUMP JUMPDEST PUSH1 0x40 MLOAD DUP1 SWAP2 SUB SWAP1 RETURN JUMPDEST PUSH2 0xE3 PUSH1 0x4 DUP1 CALLDATASIZE SUB DUP2 ADD SWAP1 PUSH2 0xDE SWAP2 SWAP1 PUSH2 0x906 JUMP JUMPDEST PUSH2 0x260 JUMP JUMPDEST PUSH1 0x40 MLOAD PUSH2 0xF1 SWAP3 SWAP2 SWAP1 PUSH2 0x9F1 JUMP JUMPDEST PUSH1 0x40 MLOAD DUP1 SWAP2 SUB SWAP1 RETURN JUMPDEST PUSH2 0x114 PUSH1 0x4 DUP1 CALLDATASIZE SUB DUP2 ADD SWAP1 PUSH2 0x10F SWAP2 SWAP1 PUSH2 0xA54 JUMP JUMPDEST PUSH2 0x42A JUMP JUMPDEST PUSH1 0x40 MLOAD PUSH2 0x121 SWAP2 SWAP1 PUSH2 0x888 JUMP JUMPDEST PUSH1 0x40 MLOAD DUP1 SWAP2 SUB SWAP1 RETURN JUMPDEST PUSH2 0x144 PUSH1 0x4 DUP1 CALLDATASIZE SUB DUP2 ADD SWAP1 PUSH2 0x13F SWAP2 SWAP1 PUSH2 0xA81 JUMP JUMPDEST PUSH2 0x447 JUMP JUMPDEST STOP JUMPDEST PUSH2 0x160 PUSH1 0x4 DUP1 CALLDATASIZE SUB DUP2 ADD SWAP1 PUSH2 0x15B SWAP2 SWAP1 PUSH2 0xA54 JUMP JUMPDEST PUSH2 0x6A5 JUMP JUMPDEST PUSH1 0x40 MLOAD PUSH2 0x16D SWAP2 SWAP1 PUSH2 0xAD0 JUMP JUMPDEST PUSH1 0x40 MLOAD DUP1 SWAP2 SUB SWAP1 RETURN JUMPDEST PUSH2 0x190 PUSH1 0x4 DUP1 CALLDATASIZE SUB DUP2 ADD SWAP1 PUSH2 0x18B SWAP2 SWAP1 PUSH2 0x906 JUMP JUMPDEST PUSH2 0x6E2 JUMP JUMPDEST PUSH1 0x40 MLOAD PUSH2 0x19D SWAP2 SWAP1 PUSH2 0x888 JUMP JUMPDEST PUSH1 0x40 MLOAD DUP1 SWAP2 SUB SWAP1 RETURN JUMPDEST PUSH2 0x1AE PUSH2 0x72B JUMP JUMPDEST PUSH1 0x40 MLOAD PUSH2 0x1BB SWAP2 SWAP1 PUSH2 0x84D JUMP JUMPDEST PUSH1 0x40 MLOAD DUP1 SWAP2 SUB SWAP1 RETURN JUMPDEST PUSH1 0x60 PUSH1 0x0 DUP1 SLOAD PUSH2 0x1D3 SWAP1 PUSH2 0xB1A JUMP JUMPDEST DUP1 PUSH1 0x1F ADD PUSH1 0x20 DUP1 SWAP2 DIV MUL PUSH1 0x20 ADD PUSH1 0x40 MLOAD SWAP1 DUP2 ADD PUSH1 0x40 MSTORE DUP1 SWAP3 SWAP2 SWAP1 DUP2 DUP2 MSTORE PUSH1 0x20 ADD DUP3 DUP1 SLOAD PUSH2 0x1FF SWAP1 PUSH2 0xB1A JUMP JUMPDEST DUP1 ISZERO PUSH2 0x24C JUMPI DUP1 PUSH1 0x1F LT PUSH2 0x221 JUMPI PUSH2 0x100 DUP1 DUP4 SLOAD DIV MUL DUP4 MSTORE SWAP2 PUSH1 0x20 ADD SWAP2 PUSH2 0x24C JUMP JUMPDEST DUP3 ADD SWAP2 SWAP1 PUSH1 0x0 MSTORE PUSH1 0x20 PUSH1 0x0 KECCAK256 SWAP1 JUMPDEST DUP2 SLOAD DUP2 MSTORE SWAP1 PUSH1 0x1 ADD SWAP1 PUSH1 0x20 ADD DUP1 DUP4 GT PUSH2 0x22F JUMPI DUP3 SWAP1 SUB PUSH1 0x1F AND DUP3 ADD SWAP2 JUMPDEST POP POP POP POP POP SWAP1 POP SWAP1 JUMP JUMPDEST PUSH1 0x0 PUSH1 0x2 SLOAD SWAP1 POP SWAP1 JUMP JUMPDEST PUSH1 0x60 DUP1 PUSH1 0x0 PUSH1 0x6 PUSH1 0x0 DUP6 PUSH20 0xFFFFFFFFFFFFFFFFFFFFFFFFFFFFFFFFFFFFFFFF AND PUSH20 0xFFFFFFFFFFFFFFFFFFFFFFFFFFFFFFFFFFFFFFFF AND DUP2 MSTORE PUSH1 0x20 ADD SWAP1 DUP2 MSTORE PUSH1 0x20 ADD PUSH1 0x0 KECCAK256 SLOAD SWAP1 POP DUP1 PUSH8 0xFFFFFFFFFFFFFFFF DUP2 GT ISZERO PUSH2 0x2C1 JUMPI PUSH2 0x2C0 PUSH2 0xB4B JUMP JUMPDEST JUMPDEST PUSH1 0x40 MLOAD SWAP1 DUP1 DUP3 MSTORE DUP1 PUSH1 0x20 MUL PUSH1 0x20 ADD DUP3 ADD PUSH1 0x40 MSTORE DUP1 ISZERO PUSH2 0x2EF JUMPI DUP2 PUSH1 0x20 ADD PUSH1 0x20 DUP3 MUL DUP1 CALLDATASIZE DUP4 CALLDATACOPY DUP1 DUP3 ADD SWAP2 POP POP SWAP1 POP JUMPDEST POP SWAP3 POP DUP1 PUSH8 0xFFFFFFFFFFFFFFFF DUP2 GT ISZERO PUSH2 0x30C JUMPI PUSH2 0x30B PUSH2 0xB4B JUMP JUMPDEST JUMPDEST PUSH1 0x40 MLOAD SWAP1 DUP1 DUP3 MSTORE DUP1 PUSH1 0x20 MUL PUSH1 0x20 ADD DUP3 ADD PUSH1 0x40 MSTORE DUP1 ISZERO PUSH2 0x33A JUMPI DUP2 PUSH1 0x20 ADD PUSH1 0x20 DUP3 MUL DUP1 CALLDATASIZE DUP4 CALLDATACOPY DUP1 DUP3 ADD SWAP2 POP POP SWAP1 POP JUMPDEST POP SWAP2 POP PUSH1 0x0 JUMPDEST DUP2 DUP2 LT ISZERO PUSH2 0x423 JUMPI PUSH1 0x4 PUSH1 0x0 DUP7 PUSH20 0xFFFFFFFFFFFFFFFFFFFFFFFFFFFFFFFFFFFFFFFF AND PUSH20 0xFFFFFFFFFFFFFFFFFFFFFFFFFFFFFFFFFFFFFFFF AND DUP2 MSTORE PUSH1 0x20 ADD SWAP1 DUP2 MSTORE PUSH1 0x20 ADD PUSH1 0x0 KECCAK256 DUP2 DUP2 SLOAD DUP2 LT PUSH2 0x399 JUMPI PUSH2 0x398 PUSH2 0xB7A JUMP JUMPDEST JUMPDEST SWAP1 PUSH1 0x0 MSTORE PUSH1 0x20 PUSH1 0x0 KECCAK256 ADD SLOAD DUP5 DUP3 DUP2 MLOAD DUP2 LT PUSH2 0x3B7 JUMPI PUSH2 0x3B6 PUSH2 0xB7A JUMP JUMPDEST JUMPDEST PUSH1 0x20 MUL PUSH1 0x20 ADD ADD DUP2 DUP2 MSTORE POP POP PUSH1 0x7 PUSH1 0x0 DUP6 DUP4 DUP2 MLOAD DUP2 LT PUSH2 0x3DA JUMPI PUSH2 0x3D9 PUSH2 0xB7A JUMP JUMPDEST JUMPDEST PUSH1 0x20 MUL PUSH1 0x20 ADD ADD MLOAD DUP2 MSTORE PUSH1 0x20 ADD SWAP1 DUP2 MSTORE PUSH1 0x20 ADD PUSH1 0x0 KECCAK256 SLOAD DUP4 DUP3 DUP2 MLOAD DUP2 LT PUSH2 0x404 JUMPI PUSH2 0x403 PUSH2 0xB7A JUMP JUMPDEST JUMPDEST PUSH1 0x20 MUL PUSH1 0x20 ADD ADD DUP2 DUP2 MSTORE POP POP DUP1 DUP1 PUSH2 0x41B SWAP1 PUSH2 0xBD8 JUMP JUMPDEST SWAP2 POP POP PUSH2 0x340 JUMP JUMPDEST POP POP SWAP2 POP SWAP2 JUMP JUMPDEST PUSH1 0x0 PUSH1 0x7 PUSH1 0x0 DUP4 DUP2 MSTORE PUSH1 0x20 ADD SWAP1 DUP2 MSTORE PUSH1 0x20 ADD PUSH1 0x0 KECCAK256 SLOAD SWAP1 POP SWAP2 SWAP1 POP JUMP JUMPDEST PUSH1 0x2 PUSH1 0x0 DUP2 SLOAD DUP1 SWAP3 SWAP2 SWAP1 PUSH2 0x45A SWAP1 PUSH2 0xBD8 JUMP JUMPDEST SWAP2 SWAP1 POP SSTORE POP PUSH1 0x6 PUSH1 0x0 DUP4 PUSH20 0xFFFFFFFFFFFFFFFFFFFFFFFFFFFFFFFFFFFFFFFF AND PUSH20 0xFFFFFFFFFFFFFFFFFFFFFFFFFFFFFFFFFFFFFFFF AND DUP2 MSTORE PUSH1 0x20 ADD SWAP1 DUP2 MSTORE PUSH1 0x20 ADD PUSH1 0x0 KECCAK256 PUSH1 0x0 DUP2 SLOAD DUP1 SWAP3 SWAP2 SWAP1 PUSH2 0x4AF SWAP1 PUSH2 0xBD8 JUMP JUMPDEST SWAP2 SWAP1 POP SSTORE POP DUP2 PUSH1 0x3 PUSH1 0x0 PUSH1 0x2 SLOAD DUP2 MSTORE PUSH1 0x20 ADD SWAP1 DUP2 MSTORE PUSH1 0x20 ADD PUSH1 0x0 KECCAK256 PUSH1 0x0 PUSH2 0x100 EXP DUP2 SLOAD DUP2 PUSH20 0xFFFFFFFFFFFFFFFFFFFFFFFFFFFFFFFFFFFFFFFF MUL NOT AND SWAP1 DUP4 PUSH20 0xFFFFFFFFFFFFFFFFFFFFFFFFFFFFFFFFFFFFFFFF AND MUL OR SWAP1 SSTORE POP DUP1 PUSH1 0x7 PUSH1 0x0 PUSH1 0x2 SLOAD DUP2 MSTORE PUSH1 0x20 ADD SWAP1 DUP2 MSTORE PUSH1 0x20 ADD PUSH1 0x0 KECCAK256 DUP2 SWAP1 SSTORE POP PUSH1 0x4 PUSH1 0x0 DUP4 PUSH20 0xFFFFFFFFFFFFFFFFFFFFFFFFFFFFFFFFFFFFFFFF AND PUSH20 0xFFFFFFFFFFFFFFFFFFFFFFFFFFFFFFFFFFFFFFFF AND DUP2 MSTORE PUSH1 0x20 ADD SWAP1 DUP2 MSTORE PUSH1 0x20 ADD PUSH1 0x0 KECCAK256 PUSH1 0x2 SLOAD SWAP1 DUP1 PUSH1 0x1 DUP2 SLOAD ADD DUP1 DUP3 SSTORE DUP1 SWAP2 POP POP PUSH1 0x1 SWAP1 SUB SWAP1 PUSH1 0x0 MSTORE PUSH1 0x20 PUSH1 0x0 KECCAK256 ADD PUSH1 0x0 SWAP1 SWAP2 SWAP1 SWAP2 SWAP1 SWAP2 POP SSTORE PUSH1 0x1 PUSH1 0x4 PUSH1 0x0 DUP5 PUSH20 0xFFFFFFFFFFFFFFFFFFFFFFFFFFFFFFFFFFFFFFFF AND PUSH20 0xFFFFFFFFFFFFFFFFFFFFFFFFFFFFFFFFFFFFFFFF AND DUP2 MSTORE PUSH1 0x20 ADD SWAP1 DUP2 MSTORE PUSH1 0x20 ADD PUSH1 0x0 KECCAK256 DUP1 SLOAD SWAP1 POP PUSH2 0x5D9 SWAP2 SWAP1 PUSH2 0xC20 JUMP JUMPDEST PUSH1 0x5 PUSH1 0x0 PUSH1 0x2 SLOAD DUP2 MSTORE PUSH1 0x20 ADD SWAP1 DUP2 MSTORE PUSH1 0x20 ADD PUSH1 0x0 KECCAK256 DUP2 SWAP1 SSTORE POP PUSH1 0x2 SLOAD DUP3 PUSH20 0xFFFFFFFFFFFFFFFFFFFFFFFFFFFFFFFFFFFFFFFF AND PUSH1 0x0 PUSH20 0xFFFFFFFFFFFFFFFFFFFFFFFFFFFFFFFFFFFFFFFF AND PUSH32 0xDDF252AD1BE2C89B69C2B068FC378DAA952BA7F163C4A11628F55A4DF523B3EF PUSH1 0x40 MLOAD PUSH1 0x40 MLOAD DUP1 SWAP2 SUB SWAP1 LOG4 PUSH1 0x2 SLOAD DUP3 PUSH20 0xFFFFFFFFFFFFFFFFFFFFFFFFFFFFFFFFFFFFFFFF AND PUSH32 0x8055969CAA4958BED8EEDFC49ABFC0503D2BEBF2735898FC63ACA86CF35AD1F DUP4 PUSH1 0x40 MLOAD PUSH2 0x699 SWAP2 SWAP1 PUSH2 0x888 JUMP JUMPDEST PUSH1 0x40 MLOAD DUP1 SWAP2 SUB SWAP1 LOG3 POP POP JUMP JUMPDEST PUSH1 0x0 PUSH1 0x3 PUSH1 0x0 DUP4 DUP2 MSTORE PUSH1 0x20 ADD SWAP1 DUP2 MSTORE PUSH1 0x20 ADD PUSH1 0x0 KECCAK256 PUSH1 0x0 SWAP1 SLOAD SWAP1 PUSH2 0x100 EXP SWAP1 DIV PUSH20 0xFFFFFFFFFFFFFFFFFFFFFFFFFFFFFFFFFFFFFFFF AND SWAP1 POP SWAP2 SWAP1 POP JUMP JUMPDEST PUSH1 0x0 PUSH1 0x6 PUSH1 0x0 DUP4 PUSH20 0xFFFFFFFFFFFFFFFFFFFFFFFFFFFFFFFFFFFFFFFF AND PUSH20 0xFFFFFFFFFFFFFFFFFFFFFFFFFFFFFFFFFFFFFFFF AND DUP2 MSTORE PUSH1 0x20 ADD SWAP1 DUP2 MSTORE PUSH1 0x20 ADD PUSH1 0x0 KECCAK256 SLOAD SWAP1 POP SWAP2 SWAP1 POP JUMP JUMPDEST PUSH1 0x60 PUSH1 0x1 DUP1 SLOAD PUSH2 0x73A SWAP1 PUSH2 0xB1A JUMP JUMPDEST DUP1 PUSH1 0x1F ADD PUSH1 0x20 DUP1 SWAP2 DIV MUL PUSH1 0x20 ADD PUSH1 0x40 MLOAD SWAP1 DUP2 ADD PUSH1 0x40 MSTORE DUP1 SWAP3 SWAP2 SWAP1 DUP2 DUP2 MSTORE PUSH1 0x20 ADD DUP3 DUP1 SLOAD PUSH2 0x766 SWAP1 PUSH2 0xB1A JUMP JUMPDEST DUP1 ISZERO PUSH2 0x7B3 JUMPI DUP1 PUSH1 0x1F LT PUSH2 0x788 JUMPI PUSH2 0x100 DUP1 DUP4 SLOAD DIV MUL DUP4 MSTORE SWAP2 PUSH1 0x20 ADD SWAP2 PUSH2 0x7B3 JUMP JUMPDEST DUP3 ADD SWAP2 SWAP1 PUSH1 0x0 MSTORE PUSH1 0x20 PUSH1 0x0 KECCAK256 SWAP1 JUMPDEST DUP2 SLOAD DUP2 MSTORE SWAP1 PUSH1 0x1 ADD SWAP1 PUSH1 0x20 ADD DUP1 DUP4 GT PUSH2 0x796 JUMPI DUP3 SWAP1 SUB PUSH1 0x1F AND DUP3 ADD SWAP2 JUMPDEST POP POP POP POP POP SWAP1 POP SWAP1 JUMP JUMPDEST PUSH1 0x0 DUP2 MLOAD SWAP1 POP SWAP2 SWAP1 POP JUMP JUMPDEST PUSH1 0x0 DUP3 DUP3 MSTORE PUSH1 0x20 DUP3 ADD SWAP1 POP SWAP3 SWAP2 POP POP JUMP JUMPDEST PUSH1 0x0 JUMPDEST DUP4 DUP2 LT ISZERO PUSH2 0x7F7 JUMPI DUP1 DUP3 ADD MLOAD DUP2 DUP5 ADD MSTORE PUSH1 0x20 DUP2 ADD SWAP1 POP PUSH2 0x7DC JUMP JUMPDEST PUSH1 0x0 DUP5 DUP5 ADD MSTORE POP POP POP POP JUMP JUMPDEST PUSH1 0x0 PUSH1 0x1F NOT PUSH1 0x1F DUP4 ADD AND SWAP1 POP SWAP2 SWAP1 POP JUMP JUMPDEST PUSH1 0x0 PUSH2 0x81F DUP3 PUSH2 0x7BD JUMP JUMPDEST PUSH2 0x829 DUP2 DUP6 PUSH2 0x7C8 JUMP JUMPDEST SWAP4 POP PUSH2 0x839 DUP2 DUP6 PUSH1 0x20 DUP7 ADD PUSH2 0x7D9 JUMP JUMPDEST PUSH2 0x842 DUP2 PUSH2 0x803 JUMP JUMPDEST DUP5 ADD SWAP2 POP POP SWAP3 SWAP2 POP POP JUMP JUMPDEST PUSH1 0x0 PUSH1 0x20 DUP3 ADD SWAP1 POP DUP2 DUP2 SUB PUSH1 0x0 DUP4 ADD MSTORE PUSH2 0x867 DUP2 DUP5 PUSH2 0x814 JUMP JUMPDEST SWAP1 POP SWAP3 SWAP2 POP POP JUMP JUMPDEST PUSH1 0x0 DUP2 SWAP1 POP SWAP2 SWAP1 POP JUMP JUMPDEST PUSH2 0x882 DUP2 PUSH2 0x86F JUMP JUMPDEST DUP3 MSTORE POP POP JUMP JUMPDEST PUSH1 0x0 PUSH1 0x20 DUP3 ADD SWAP1 POP PUSH2 0x89D PUSH1 0x0 DUP4 ADD DUP5 PUSH2 0x879 JUMP JUMPDEST SWAP3 SWAP2 POP POP JUMP JUMPDEST PUSH1 0x0 DUP1 REVERT JUMPDEST PUSH1 0x0 PUSH20 0xFFFFFFFFFFFFFFFFFFFFFFFFFFFFFFFFFFFFFFFF DUP3 AND SWAP1 POP SWAP2 SWAP1 POP JUMP JUMPDEST PUSH1 0x0 PUSH2 0x8D3 DUP3 PUSH2 0x8A8 JUMP JUMPDEST SWAP1 POP SWAP2 SWAP1 POP JUMP JUMPDEST PUSH2 0x8E3 DUP2 PUSH2 0x8C8 JUMP JUMPDEST DUP2 EQ PUSH2 0x8EE JUMPI PUSH1 0x0 DUP1 REVERT JUMPDEST POP JUMP JUMPDEST PUSH1 0x0 DUP2 CALLDATALOAD SWAP1 POP PUSH2 0x900 DUP2 PUSH2 0x8DA JUMP JUMPDEST SWAP3 SWAP2 POP POP JUMP JUMPDEST PUSH1 0x0 PUSH1 0x20 DUP3 DUP5 SUB SLT ISZERO PUSH2 0x91C JUMPI PUSH2 0x91B PUSH2 0x8A3 JUMP JUMPDEST JUMPDEST PUSH1 0x0 PUSH2 0x92A DUP5 DUP3 DUP6 ADD PUSH2 0x8F1 JUMP JUMPDEST SWAP2 POP POP SWAP3 SWAP2 POP POP JUMP JUMPDEST PUSH1 0x0 DUP2 MLOAD SWAP1 POP SWAP2 SWAP1 POP JUMP JUMPDEST PUSH1 0x0 DUP3 DUP3 MSTORE PUSH1 0x20 DUP3 ADD SWAP1 POP SWAP3 SWAP2 POP POP JUMP JUMPDEST PUSH1 0x0 DUP2 SWAP1 POP PUSH1 0x20 DUP3 ADD SWAP1 POP SWAP2 SWAP1 POP JUMP JUMPDEST PUSH2 0x968 DUP2 PUSH2 0x86F JUMP JUMPDEST DUP3 MSTORE POP POP JUMP JUMPDEST PUSH1 0x0 PUSH2 0x97A DUP4 DUP4 PUSH2 0x95F JUMP JUMPDEST PUSH1 0x20 DUP4 ADD SWAP1 POP SWAP3 SWAP2 POP POP JUMP JUMPDEST PUSH1 0x0 PUSH1 0x20 DUP3 ADD SWAP1 POP SWAP2 SWAP1 POP JUMP JUMPDEST PUSH1 0x0 PUSH2 0x99E DUP3 PUSH2 0x933 JUMP JUMPDEST PUSH2 0x9A8 DUP2 DUP6 PUSH2 0x93E JUMP JUMPDEST SWAP4 POP PUSH2 0x9B3 DUP4 PUSH2 0x94F JUMP JUMPDEST DUP1 PUSH1 0x0 JUMPDEST DUP4 DUP2 LT ISZERO PUSH2 0x9E4 JUMPI DUP2 MLOAD PUSH2 0x9CB DUP9 DUP3 PUSH2 0x96E JUMP JUMPDEST SWAP8 POP PUSH2 0x9D6 DUP4 PUSH2 0x986 JUMP JUMPDEST SWAP3 POP POP PUSH1 0x1 DUP2 ADD SWAP1 POP PUSH2 0x9B7 JUMP JUMPDEST POP DUP6 SWAP4 POP POP POP POP SWAP3 SWAP2 POP POP JUMP JUMPDEST PUSH1 0x0 PUSH1 0x40 DUP3 ADD SWAP1 POP DUP2 DUP2 SUB PUSH1 0x0 DUP4 ADD MSTORE PUSH2 0xA0B DUP2 DUP6 PUSH2 0x993 JUMP JUMPDEST SWAP1 POP DUP2 DUP2 SUB PUSH1 0x20 DUP4 ADD MSTORE PUSH2 0xA1F DUP2 DUP5 PUSH2 0x993 JUMP JUMPDEST SWAP1 POP SWAP4 SWAP3 POP POP POP JUMP JUMPDEST PUSH2 0xA31 DUP2 PUSH2 0x86F JUMP JUMPDEST DUP2 EQ PUSH2 0xA3C JUMPI PUSH1 0x0 DUP1 REVERT JUMPDEST POP JUMP JUMPDEST PUSH1 0x0 DUP2 CALLDATALOAD SWAP1 POP PUSH2 0xA4E DUP2 PUSH2 0xA28 JUMP JUMPDEST SWAP3 SWAP2 POP POP JUMP JUMPDEST PUSH1 0x0 PUSH1 0x20 DUP3 DUP5 SUB SLT ISZERO PUSH2 0xA6A JUMPI PUSH2 0xA69 PUSH2 0x8A3 JUMP JUMPDEST JUMPDEST PUSH1 0x0 PUSH2 0xA78 DUP5 DUP3 DUP6 ADD PUSH2 0xA3F JUMP JUMPDEST SWAP2 POP POP SWAP3 SWAP2 POP POP JUMP JUMPDEST PUSH1 0x0 DUP1 PUSH1 0x40 DUP4 DUP6 SUB SLT ISZERO PUSH2 0xA98 JUMPI PUSH2 0xA97 PUSH2 0x8A3 JUMP JUMPDEST JUMPDEST PUSH1 0x0 PUSH2 0xAA6 DUP6 DUP3 DUP7 ADD PUSH2 0x8F1 JUMP JUMPDEST SWAP3 POP POP PUSH1 0x20 PUSH2 0xAB7 DUP6 DUP3 DUP7 ADD PUSH2 0xA3F JUMP JUMPDEST SWAP2 POP POP SWAP3 POP SWAP3 SWAP1 POP JUMP JUMPDEST PUSH2 0xACA DUP2 PUSH2 0x8C8 JUMP JUMPDEST DUP3 MSTORE POP POP JUMP JUMPDEST PUSH1 0x0 PUSH1 0x20 DUP3 ADD SWAP1 POP PUSH2 0xAE5 PUSH1 0x0 DUP4 ADD DUP5 PUSH2 0xAC1 JUMP JUMPDEST SWAP3 SWAP2 POP POP JUMP JUMPDEST PUSH32 0x4E487B7100000000000000000000000000000000000000000000000000000000 PUSH1 0x0 MSTORE PUSH1 0x22 PUSH1 0x4 MSTORE PUSH1 0x24 PUSH1 0x0 REVERT JUMPDEST PUSH1 0x0 PUSH1 0x2 DUP3 DIV SWAP1 POP PUSH1 0x1 DUP3 AND DUP1 PUSH2 0xB32 JUMPI PUSH1 0x7F DUP3 AND SWAP2 POP JUMPDEST PUSH1 0x20 DUP3 LT DUP2 SUB PUSH2 0xB45 JUMPI PUSH2 0xB44 PUSH2 0xAEB JUMP JUMPDEST JUMPDEST POP SWAP2 SWAP1 POP JUMP JUMPDEST PUSH32 0x4E487B7100000000000000000000000000000000000000000000000000000000 PUSH1 0x0 MSTORE PUSH1 0x41 PUSH1 0x4 MSTORE PUSH1 0x24 PUSH1 0x0 REVERT JUMPDEST PUSH32 0x4E487B7100000000000000000000000000000000000000000000000000000000 PUSH1 0x0 MSTORE PUSH1 0x32 PUSH1 0x4 MSTORE PUSH1 0x24 PUSH1 0x0 REVERT JUMPDEST PUSH32 0x4E487B7100000000000000000000000000000000000000000000000000000000 PUSH1 0x0 MSTORE PUSH1 0x11 PUSH1 0x4 MSTORE PUSH1 0x24 PUSH1 0x0 REVERT JUMPDEST PUSH1 0x0 PUSH2 0xBE3 DUP3 PUSH2 0x86F JUMP JUMPDEST SWAP2 POP PUSH32 0xFFFFFFFFFFFFFFFFFFFFFFFFFFFFFFFFFFFFFFFFFFFFFFFFFFFFFFFFFFFFFFFF DUP3 SUB PUSH2 0xC15 JUMPI PUSH2 0xC14 PUSH2 0xBA9 JUMP JUMPDEST JUMPDEST PUSH1 0x1 DUP3 ADD SWAP1 POP SWAP2 SWAP1 POP JUMP JUMPDEST PUSH1 0x0 PUSH2 0xC2B DUP3 PUSH2 0x86F JUMP JUMPDEST SWAP2 POP PUSH2 0xC36 DUP4 PUSH2 0x86F JUMP JUMPDEST SWAP3 POP DUP3 DUP3 SUB SWAP1 POP DUP2 DUP2 GT ISZERO PUSH2 0xC4E JUMPI PUSH2 0xC4D PUSH2 0xBA9 JUMP JUMPDEST JUMPDEST SWAP3 SWAP2 POP POP JUMP INVALID LOG2 PUSH5 0x6970667358 0x22 SLT KECCAK256 0xCA PC DUP12 DUP9 0xE3 0xBC DUP9 PUSH8 0xA02B95DB03512D80 EQ PUSH22 0xF3624E305E9A849B0E2880639C8F64736F6C63430008 SLT STOP CALLER "},"methodIdentifiers":{"balanceOf(address)":"70a08231","certificatesOfOwner(address)":"3a73c0b7","getCertificateScore(uint256)":"3ee8eb6e","mint(address,uint256)":"40c10f19","name()":"06fdde03","ownerOf(uint256)":"6352211e","symbol()":"95d89b41","totalSupply()":"18160ddd"}}}}}