{"contracts/MetaOperator.sol":{"MetaOperator":{"abi":[{"inputs":[{"internalType":"address","name":"tokenAddr","type":"address"},{"internalType":"address","name":"treeNFTAddr","type":"address"},{"internalType":"address","name":"certNFTAddr","type":"address"}],"stateMutability":"nonpayable","type":"constructor"},{"inputs":[],"name":"DAPPAccount","outputs":[{"internalType":"address","name":"","type":"address"}],"stateMutability":"view","type":"function"},{"inputs":[],"name":"NGOAccount","outputs":[{"internalType":"address","name":"","type":"address"}],"stateMutability":"view","type":"function"},{"inputs":[{"internalType":"address","name":"spender","type":"address"},{"internalType":"uint256","name":"amount","type":"uint256"}],"name":"approveTokens","outputs":[],"stateMutability":"nonpayable","type":"function"},{"inputs":[{"internalType":"address","name":"certOwner","type":"address"}],"name":"balanceOfCertificateNFT","outputs":[{"internalType":"uint256","name":"","type":"uint256"}],"stateMutability":"view","type":"function"},{"inputs":[{"internalType":"address","name":"account","type":"address"}],"name":"balanceOfTokens","outputs":[{"internalType":"uint256","name":"","type":"uint256"}],"stateMutability":"view","type":"function"},{"inputs":[{"internalType":"address","name":"certOwner","type":"address"}],"name":"certificatesAndScoresOfCertificateOwner","outputs":[{"internalType":"uint256[]","name":"","type":"uint256[]"},{"internalType":"uint256[]","name":"","type":"uint256[]"}],"stateMutability":"view","type":"function"},{"inputs":[{"internalType":"uint256","name":"amount","type":"uint256"}],"name":"disburseTokens","outputs":[],"stateMutability":"nonpayable","type":"function"},{"inputs":[{"internalType":"uint256","name":"tokenId","type":"uint256"}],"name":"getCertificateScore","outputs":[{"internalType":"uint256","name":"","type":"uint256"}],"stateMutability":"view","type":"function"},{"inputs":[{"internalType":"uint256","name":"tokenId","type":"uint256"}],"name":"getTreeLevel","outputs":[{"internalType":"uint256","name":"","type":"uint256"}],"stateMutability":"view","type":"function"},{"inputs":[{"internalType":"uint256","name":"tokenId","type":"uint256"}],"name":"levelUpTree","outputs":[],"stateMutability":"nonpayable","type":"function"},{"inputs":[{"internalType":"address","name":"to","type":"address"},{"internalType":"uint256","name":"score","type":"uint256"}],"name":"mintCertificate","outputs":[],"stateMutability":"nonpayable","type":"function"},{"inputs":[{"internalType":"address","name":"to","type":"address"}],"name":"mintTree","outputs":[],"stateMutability":"nonpayable","type":"function"},{"inputs":[{"internalType":"address","name":"account","type":"address"},{"internalType":"uint256","name":"amount","type":"uint256"}],"name":"rewardTokens","outputs":[],"stateMutability":"nonpayable","type":"function"},{"inputs":[{"internalType":"address","name":"treeOwner","type":"address"}],"name":"tokensAndLevelsOfTreeOwner","outputs":[{"internalType":"uint256[]","name":"","type":"uint256[]"},{"internalType":"uint256[]","name":"","type":"uint256[]"}],"stateMutability":"view","type":"function"},{"inputs":[{"internalType":"address","name":"recipient","type":"address"},{"internalType":"uint256","name":"amount","type":"uint256"}],"name":"transferTokens","outputs":[],"stateMutability":"nonpayable","type":"function"},{"inputs":[{"internalType":"address","name":"sender","type":"address"},{"internalType":"address","name":"recipient","type":"address"},{"internalType":"uint256","name":"amount","type":"uint256"}],"name":"transferTokensFrom","outputs":[],"stateMutability":"nonpayable","type":"function"}],"evm":{"bytecode":{"linkReferences":{},"object":"60806040523480156200001157600080fd5b50604051620017df380380620017df83398181016040528101906200003791906200016c565b826000806101000a81548173ffffffffffffffffffffffffffffffffffffffff021916908373ffffffffffffffffffffffffffffffffffffffff16021790555081600160006101000a81548173ffffffffffffffffffffffffffffffffffffffff021916908373ffffffffffffffffffffffffffffffffffffffff16021790555080600260006101000a81548173ffffffffffffffffffffffffffffffffffffffff021916908373ffffffffffffffffffffffffffffffffffffffff160217905550505050620001c8565b600080fd5b600073ffffffffffffffffffffffffffffffffffffffff82169050919050565b6000620001348262000107565b9050919050565b620001468162000127565b81146200015257600080fd5b50565b60008151905062000166816200013b565b92915050565b60008060006060848603121562000188576200018762000102565b5b6000620001988682870162000155565b9350506020620001ab8682870162000155565b9250506040620001be8682870162000155565b9150509250925092565b61160780620001d86000396000f3fe608060405234801561001057600080fd5b50600436106100ff5760003560e01c8063998f90bb11610097578063bec3fa1711610066578063bec3fa17146102d0578063c0790f57146102ec578063f38488ec1461030a578063fe19b68b14610326576100ff565b8063998f90bb1461025e5780639a044cfa1461027a578063a5015dd114610298578063be4780c2146102b4576100ff565b806352912042116100d357806352912042146101c4578063717f96d2146101e05780637a38664e1461021157806381a4af1514610242576100ff565b806283293e146101045780632bce3fbe146101345780632ff57da8146101645780633ee8eb6e14610194575b600080fd5b61011e60048036038101906101199190610f3f565b610342565b60405161012b9190610f85565b60405180910390f35b61014e60048036038101906101499190610fcc565b6103e7565b60405161015b9190610f85565b60405180910390f35b61017e60048036038101906101799190610f3f565b61048c565b60405161018b9190610f85565b60405180910390f35b6101ae60048036038101906101a99190610fcc565b610530565b6040516101bb9190610f85565b60405180910390f35b6101de60048036038101906101d99190610ff9565b6105d5565b005b6101fa60048036038101906101f59190610f3f565b61067b565b60405161020892919061110a565b60405180910390f35b61022b60048036038101906102269190610f3f565b610728565b60405161023992919061110a565b60405180910390f35b61025c60048036038101906102579190611141565b6107d5565b005b61027860048036038101906102739190610fcc565b610866565b005b610282610ba4565b60405161028f9190611190565b60405180910390f35b6102b260048036038101906102ad9190611141565b610bbc565b005b6102ce60048036038101906102c99190610fcc565b610c4f565b005b6102ea60048036038101906102e59190611141565b610cdf565b005b6102f4610d82565b6040516103019190611190565b60405180910390f35b610324600480360381019061031f9190611141565b610d9a565b005b610340600480360381019061033b9190610f3f565b610e3d565b005b6000600260009054906101000a900473ffffffffffffffffffffffffffffffffffffffff1673ffffffffffffffffffffffffffffffffffffffff166370a08231836040518263ffffffff1660e01b815260040161039f9190611190565b602060405180830381865afa1580156103bc573d6000803e3d6000fd5b505050506040513d601f19601f820116820180604052508101906103e091906111c0565b9050919050565b6000600160009054906101000a900473ffffffffffffffffffffffffffffffffffffffff1673ffffffffffffffffffffffffffffffffffffffff16632bce3fbe836040518263ffffffff1660e01b81526004016104449190610f85565b602060405180830381865afa158015610461573d6000803e3d6000fd5b505050506040513d601f19601f8201168201806040525081019061048591906111c0565b9050919050565b60008060009054906101000a900473ffffffffffffffffffffffffffffffffffffffff1673ffffffffffffffffffffffffffffffffffffffff166370a08231836040518263ffffffff1660e01b81526004016104e89190611190565b602060405180830381865afa158015610505573d6000803e3d6000fd5b505050506040513d601f19601f8201168201806040525081019061052991906111c0565b9050919050565b6000600260009054906101000a900473ffffffffffffffffffffffffffffffffffffffff1673ffffffffffffffffffffffffffffffffffffffff16633ee8eb6e836040518263ffffffff1660e01b815260040161058d9190610f85565b602060405180830381865afa1580156105aa573d6000803e3d6000fd5b505050506040513d601f19601f820116820180604052508101906105ce91906111c0565b9050919050565b60008054906101000a900473ffffffffffffffffffffffffffffffffffffffff1673ffffffffffffffffffffffffffffffffffffffff166323b872dd8484846040518463ffffffff1660e01b8152600401610632939291906111ed565b6020604051808303816000875af1158015610651573d6000803e3d6000fd5b505050506040513d601f19601f82011682018060405250810190610675919061125c565b50505050565b606080600260009054906101000a900473ffffffffffffffffffffffffffffffffffffffff1673ffffffffffffffffffffffffffffffffffffffff16633a73c0b7846040518263ffffffff1660e01b81526004016106d99190611190565b600060405180830381865afa1580156106f6573d6000803e3d6000fd5b505050506040513d6000823e3d601f19601f8201168201806040525081019061071f91906113e2565b91509150915091565b606080600160009054906101000a900473ffffffffffffffffffffffffffffffffffffffff1673ffffffffffffffffffffffffffffffffffffffff16638462151c846040518263ffffffff1660e01b81526004016107869190611190565b600060405180830381865afa1580156107a3573d6000803e3d6000fd5b505050506040513d6000823e3d601f19601f820116820180604052508101906107cc91906113e2565b91509150915091565b60008054906101000a900473ffffffffffffffffffffffffffffffffffffffff1673ffffffffffffffffffffffffffffffffffffffff1663f001b42183836040518363ffffffff1660e01b815260040161083092919061145a565b600060405180830381600087803b15801561084a57600080fd5b505af115801561085e573d6000803e3d6000fd5b505050505050565b8060008054906101000a900473ffffffffffffffffffffffffffffffffffffffff1673ffffffffffffffffffffffffffffffffffffffff166370a08231336040518263ffffffff1660e01b81526004016108c09190611190565b602060405180830381865afa1580156108dd573d6000803e3d6000fd5b505050506040513d601f19601f8201168201806040525081019061090191906111c0565b1015610942576040517f08c379a0000000000000000000000000000000000000000000000000000000008152600401610939906114e0565b60405180910390fd5b60006064602883610953919061152f565b61095d91906115a0565b905060006064601e84610970919061152f565b61097a91906115a0565b905060006064601e8561098d919061152f565b61099791906115a0565b905060008054906101000a900473ffffffffffffffffffffffffffffffffffffffff1673ffffffffffffffffffffffffffffffffffffffff1663a9059cbb7340d5568fe100dbc06a5ed91862b85250f54881e2856040518363ffffffff1660e01b8152600401610a0892919061145a565b6020604051808303816000875af1158015610a27573d6000803e3d6000fd5b505050506040513d601f19601f82011682018060405250810190610a4b919061125c565b5060008054906101000a900473ffffffffffffffffffffffffffffffffffffffff1673ffffffffffffffffffffffffffffffffffffffff1663a9059cbb33846040518363ffffffff1660e01b8152600401610aa792919061145a565b6020604051808303816000875af1158015610ac6573d6000803e3d6000fd5b505050506040513d601f19601f82011682018060405250810190610aea919061125c565b5060008054906101000a900473ffffffffffffffffffffffffffffffffffffffff1673ffffffffffffffffffffffffffffffffffffffff1663a9059cbb73c888636228a82f0f59abae53b9850500d0ba1d41836040518363ffffffff1660e01b8152600401610b5a92919061145a565b6020604051808303816000875af1158015610b79573d6000803e3d6000fd5b505050506040513d601f19601f82011682018060405250810190610b9d919061125c565b5050505050565b7340d5568fe100dbc06a5ed91862b85250f54881e281565b600260009054906101000a900473ffffffffffffffffffffffffffffffffffffffff1673ffffffffffffffffffffffffffffffffffffffff166340c10f1983836040518363ffffffff1660e01b8152600401610c1992919061145a565b600060405180830381600087803b158015610c3357600080fd5b505af1158015610c47573d6000803e3d6000fd5b505050505050565b600160009054906101000a900473ffffffffffffffffffffffffffffffffffffffff1673ffffffffffffffffffffffffffffffffffffffff16630ce90ec2826040518263ffffffff1660e01b8152600401610caa9190610f85565b600060405180830381600087803b158015610cc457600080fd5b505af1158015610cd8573d6000803e3d6000fd5b5050505050565b60008054906101000a900473ffffffffffffffffffffffffffffffffffffffff1673ffffffffffffffffffffffffffffffffffffffff1663a9059cbb83836040518363ffffffff1660e01b8152600401610d3a92919061145a565b6020604051808303816000875af1158015610d59573d6000803e3d6000fd5b505050506040513d601f19601f82011682018060405250810190610d7d919061125c565b505050565b73c888636228a82f0f59abae53b9850500d0ba1d4181565b60008054906101000a900473ffffffffffffffffffffffffffffffffffffffff1673ffffffffffffffffffffffffffffffffffffffff1663095ea7b383836040518363ffffffff1660e01b8152600401610df592919061145a565b6020604051808303816000875af1158015610e14573d6000803e3d6000fd5b505050506040513d601f19601f82011682018060405250810190610e38919061125c565b505050565b600160009054906101000a900473ffffffffffffffffffffffffffffffffffffffff1673ffffffffffffffffffffffffffffffffffffffff16636a627842826040518263ffffffff1660e01b8152600401610e989190611190565b600060405180830381600087803b158015610eb257600080fd5b505af1158015610ec6573d6000803e3d6000fd5b5050505050565b6000604051905090565b600080fd5b600080fd5b600073ffffffffffffffffffffffffffffffffffffffff82169050919050565b6000610f0c82610ee1565b9050919050565b610f1c81610f01565b8114610f2757600080fd5b50565b600081359050610f3981610f13565b92915050565b600060208284031215610f5557610f54610ed7565b5b6000610f6384828501610f2a565b91505092915050565b6000819050919050565b610f7f81610f6c565b82525050565b6000602082019050610f9a6000830184610f76565b92915050565b610fa981610f6c565b8114610fb457600080fd5b50565b600081359050610fc681610fa0565b92915050565b600060208284031215610fe257610fe1610ed7565b5b6000610ff084828501610fb7565b91505092915050565b60008060006060848603121561101257611011610ed7565b5b600061102086828701610f2a565b935050602061103186828701610f2a565b925050604061104286828701610fb7565b9150509250925092565b600081519050919050565b600082825260208201905092915050565b6000819050602082019050919050565b61108181610f6c565b82525050565b60006110938383611078565b60208301905092915050565b6000602082019050919050565b60006110b78261104c565b6110c18185611057565b93506110cc83611068565b8060005b838110156110fd5781516110e48882611087565b97506110ef8361109f565b9250506001810190506110d0565b5085935050505092915050565b6000604082019050818103600083015261112481856110ac565b9050818103602083015261113881846110ac565b90509392505050565b6000806040838503121561115857611157610ed7565b5b600061116685828601610f2a565b925050602061117785828601610fb7565b9150509250929050565b61118a81610f01565b82525050565b60006020820190506111a56000830184611181565b92915050565b6000815190506111ba81610fa0565b92915050565b6000602082840312156111d6576111d5610ed7565b5b60006111e4848285016111ab565b91505092915050565b60006060820190506112026000830186611181565b61120f6020830185611181565b61121c6040830184610f76565b949350505050565b60008115159050919050565b61123981611224565b811461124457600080fd5b50565b60008151905061125681611230565b92915050565b60006020828403121561127257611271610ed7565b5b600061128084828501611247565b91505092915050565b600080fd5b6000601f19601f8301169050919050565b7f4e487b7100000000000000000000000000000000000000000000000000000000600052604160045260246000fd5b6112d78261128e565b810181811067ffffffffffffffff821117156112f6576112f561129f565b5b80604052505050565b6000611309610ecd565b905061131582826112ce565b919050565b600067ffffffffffffffff8211156113355761133461129f565b5b602082029050602081019050919050565b600080fd5b600061135e6113598461131a565b6112ff565b9050808382526020820190506020840283018581111561138157611380611346565b5b835b818110156113aa578061139688826111ab565b845260208401935050602081019050611383565b5050509392505050565b600082601f8301126113c9576113c8611289565b5b81516113d984826020860161134b565b91505092915050565b600080604083850312156113f9576113f8610ed7565b5b600083015167ffffffffffffffff81111561141757611416610edc565b5b611423858286016113b4565b925050602083015167ffffffffffffffff81111561144457611443610edc565b5b611450858286016113b4565b9150509250929050565b600060408201905061146f6000830185611181565b61147c6020830184610f76565b9392505050565b600082825260208201905092915050565b7f496e73756666696369656e742062616c616e6365000000000000000000000000600082015250565b60006114ca601483611483565b91506114d582611494565b602082019050919050565b600060208201905081810360008301526114f9816114bd565b9050919050565b7f4e487b7100000000000000000000000000000000000000000000000000000000600052601160045260246000fd5b600061153a82610f6c565b915061154583610f6c565b925082820261155381610f6c565b9150828204841483151761156a57611569611500565b5b5092915050565b7f4e487b7100000000000000000000000000000000000000000000000000000000600052601260045260246000fd5b60006115ab82610f6c565b91506115b683610f6c565b9250826115c6576115c5611571565b5b82820490509291505056fea26469706673582212204c3cea7311edd5db5d695a5ae455ffd900bfc9f3306e2bbcf8dda925b08ec99c64736f6c63430008120033","opcodes":"PUSH1 0x80 PUSH1 0x40 MSTORE CALLVALUE DUP1 ISZERO PUSH3 0x11 JUMPI PUSH1 0x0 DUP1 REVERT JUMPDEST POP PUSH1 0x40 MLOAD PUSH3 0x17DF CODESIZE SUB DUP1 PUSH3 0x17DF DUP4 CODECOPY DUP2 DUP2 ADD PUSH1 0x40 MSTORE DUP2 ADD SWAP1 PUSH3 0x37 SWAP2 SWAP1 PUSH3 0x16C JUMP JUMPDEST DUP3 PUSH1 0x0 DUP1 PUSH2 0x100 EXP DUP2 SLOAD DUP2 PUSH20 0xFFFFFFFFFFFFFFFFFFFFFFFFFFFFFFFFFFFFFFFF MUL NOT AND SWAP1 DUP4 PUSH20 0xFFFFFFFFFFFFFFFFFFFFFFFFFFFFFFFFFFFFFFFF AND MUL OR SWAP1 SSTORE POP DUP2 PUSH1 0x1 PUSH1 0x0 PUSH2 0x100 EXP DUP2 SLOAD DUP2 PUSH20 0xFFFFFFFFFFFFFFFFFFFFFFFFFFFFFFFFFFFFFFFF MUL NOT AND SWAP1 DUP4 PUSH20 0xFFFFFFFFFFFFFFFFFFFFFFFFFFFFFFFFFFFFFFFF AND MUL OR SWAP1 SSTORE POP DUP1 PUSH1 0x2 PUSH1 0x0 PUSH2 0x100 EXP DUP2 SLOAD DUP2 PUSH20 0xFFFFFFFFFFFFFFFFFFFFFFFFFFFFFFFFFFFFFFFF MUL NOT AND SWAP1 DUP4 PUSH20 0xFFFFFFFFFFFFFFFFFFFFFFFFFFFFFFFFFFFFFFFF AND MUL OR SWAP1 SSTORE POP POP POP POP PUSH3 0x1C8 JUMP JUMPDEST PUSH1 0x0 DUP1 REVERT JUMPDEST PUSH1 0x0 PUSH20 0xFFFFFFFFFFFFFFFFFFFFFFFFFFFFFFFFFFFFFFFF DUP3 AND SWAP1 POP SWAP2 SWAP1 POP JUMP JUMPDEST PUSH1 0x0 PUSH3 0x134 DUP3 PUSH3 0x107 JUMP JUMPDEST SWAP1 POP SWAP2 SWAP1 POP JUMP JUMPDEST PUSH3 0x146 DUP2 PUSH3 0x127 JUMP JUMPDEST DUP2 EQ PUSH3 0x152 JUMPI PUSH1 0x0 DUP1 REVERT JUMPDEST POP JUMP JUMPDEST PUSH1 0x0 DUP2 MLOAD SWAP1 POP PUSH3 0x166 DUP2 PUSH3 0x13B JUMP JUMPDEST SWAP3 SWAP2 POP POP JUMP JUMPDEST PUSH1 0x0 DUP1 PUSH1 0x0 PUSH1 0x60 DUP5 DUP7 SUB SLT ISZERO PUSH3 0x188 JUMPI PUSH3 0x187 PUSH3 0x102 JUMP JUMPDEST JUMPDEST PUSH1 0x0 PUSH3 0x198 DUP7 DUP3 DUP8 ADD PUSH3 0x155 JUMP JUMPDEST SWAP4 POP POP PUSH1 0x20 PUSH3 0x1AB DUP7 DUP3 DUP8 ADD PUSH3 0x155 JUMP JUMPDEST SWAP3 POP POP PUSH1 0x40 PUSH3 0x1BE DUP7 DUP3 DUP8 ADD PUSH3 0x155 JUMP JUMPDEST SWAP2 POP POP SWAP3 POP SWAP3 POP SWAP3 JUMP JUMPDEST PUSH2 0x1607 DUP1 PUSH3 0x1D8 PUSH1 0x0 CODECOPY PUSH1 0x0 RETURN INVALID PUSH1 0x80 PUSH1 0x40 MSTORE CALLVALUE DUP1 ISZERO PUSH2 0x10 JUMPI PUSH1 0x0 DUP1 REVERT JUMPDEST POP PUSH1 0x4 CALLDATASIZE LT PUSH2 0xFF JUMPI PUSH1 0x0 CALLDATALOAD PUSH1 0xE0 SHR DUP1 PUSH4 0x998F90BB GT PUSH2 0x97 JUMPI DUP1 PUSH4 0xBEC3FA17 GT PUSH2 0x66 JUMPI DUP1 PUSH4 0xBEC3FA17 EQ PUSH2 0x2D0 JUMPI DUP1 PUSH4 0xC0790F57 EQ PUSH2 0x2EC JUMPI DUP1 PUSH4 0xF38488EC EQ PUSH2 0x30A JUMPI DUP1 PUSH4 0xFE19B68B EQ PUSH2 0x326 JUMPI PUSH2 0xFF JUMP JUMPDEST DUP1 PUSH4 0x998F90BB EQ PUSH2 0x25E JUMPI DUP1 PUSH4 0x9A044CFA EQ PUSH2 0x27A JUMPI DUP1 PUSH4 0xA5015DD1 EQ PUSH2 0x298 JUMPI DUP1 PUSH4 0xBE4780C2 EQ PUSH2 0x2B4 JUMPI PUSH2 0xFF JUMP JUMPDEST DUP1 PUSH4 0x52912042 GT PUSH2 0xD3 JUMPI DUP1 PUSH4 0x52912042 EQ PUSH2 0x1C4 JUMPI DUP1 PUSH4 0x717F96D2 EQ PUSH2 0x1E0 JUMPI DUP1 PUSH4 0x7A38664E EQ PUSH2 0x211 JUMPI DUP1 PUSH4 0x81A4AF15 EQ PUSH2 0x242 JUMPI PUSH2 0xFF JUMP JUMPDEST DUP1 PUSH3 0x83293E EQ PUSH2 0x104 JUMPI DUP1 PUSH4 0x2BCE3FBE EQ PUSH2 0x134 JUMPI DUP1 PUSH4 0x2FF57DA8 EQ PUSH2 0x164 JUMPI DUP1 PUSH4 0x3EE8EB6E EQ PUSH2 0x194 JUMPI JUMPDEST PUSH1 0x0 DUP1 REVERT JUMPDEST PUSH2 0x11E PUSH1 0x4 DUP1 CALLDATASIZE SUB DUP2 ADD SWAP1 PUSH2 0x119 SWAP2 SWAP1 PUSH2 0xF3F JUMP JUMPDEST PUSH2 0x342 JUMP JUMPDEST PUSH1 0x40 MLOAD PUSH2 0x12B SWAP2 SWAP1 PUSH2 0xF85 JUMP JUMPDEST PUSH1 0x40 MLOAD DUP1 SWAP2 SUB SWAP1 RETURN JUMPDEST PUSH2 0x14E PUSH1 0x4 DUP1 CALLDATASIZE SUB DUP2 ADD SWAP1 PUSH2 0x149 SWAP2 SWAP1 PUSH2 0xFCC JUMP JUMPDEST PUSH2 0x3E7 JUMP JUMPDEST PUSH1 0x40 MLOAD PUSH2 0x15B SWAP2 SWAP1 PUSH2 0xF85 JUMP JUMPDEST PUSH1 0x40 MLOAD DUP1 SWAP2 SUB SWAP1 RETURN JUMPDEST PUSH2 0x17E PUSH1 0x4 DUP1 CALLDATASIZE SUB DUP2 ADD SWAP1 PUSH2 0x179 SWAP2 SWAP1 PUSH2 0xF3F JUMP JUMPDEST PUSH2 0x48C JUMP JUMPDEST PUSH1 0x40 MLOAD PUSH2 0x18B SWAP2 SWAP1 PUSH2 0xF85 JUMP JUMPDEST PUSH1 0x40 MLOAD DUP1 SWAP2 SUB SWAP1 RETURN JUMPDEST PUSH2 0x1AE PUSH1 0x4 DUP1 CALLDATASIZE SUB DUP2 ADD SWAP1 PUSH2 0x1A9 SWAP2 SWAP1 PUSH2 0xFCC JUMP JUMPDEST PUSH2 0x530 JUMP JUMPDEST PUSH1 0x40 MLOAD PUSH2 0x1BB SWAP2 SWAP1 PUSH2 0xF85 JUMP JUMPDEST PUSH1 0x40 MLOAD DUP1 SWAP2 SUB SWAP1 RETURN JUMPDEST PUSH2 0x1DE PUSH1 0x4 DUP1 CALLDATASIZE SUB DUP2 ADD SWAP1 PUSH2 0x1D9 SWAP2 SWAP1 PUSH2 0xFF9 JUMP JUMPDEST PUSH2 0x5D5 JUMP JUMPDEST STOP JUMPDEST PUSH2 0x1FA PUSH1 0x4 DUP1 CALLDATASIZE SUB DUP2 ADD SWAP1 PUSH2 0x1F5 SWAP2 SWAP1 PUSH2 0xF3F JUMP JUMPDEST PUSH2 0x67B JUMP JUMPDEST PUSH1 0x40 MLOAD PUSH2 0x208 SWAP3 SWAP2 SWAP1 PUSH2 0x110A JUMP JUMPDEST PUSH1 0x40 MLOAD DUP1 SWAP2 SUB SWAP1 RETURN JUMPDEST PUSH2 0x22B PUSH1 0x4 DUP1 CALLDATASIZE SUB DUP2 ADD SWAP1 PUSH2 0x226 SWAP2 SWAP1 PUSH2 0xF3F JUMP JUMPDEST PUSH2 0x728 JUMP JUMPDEST PUSH1 0x40 MLOAD PUSH2 0x239 SWAP3 SWAP2 SWAP1 PUSH2 0x110A JUMP JUMPDEST PUSH1 0x40 MLOAD DUP1 SWAP2 SUB SWAP1 RETURN JUMPDEST PUSH2 0x25C PUSH1 0x4 DUP1 CALLDATASIZE SUB DUP2 ADD SWAP1 PUSH2 0x257 SWAP2 SWAP1 PUSH2 0x1141 JUMP JUMPDEST PUSH2 0x7D5 JUMP JUMPDEST STOP JUMPDEST PUSH2 0x278 PUSH1 0x4 DUP1 CALLDATASIZE SUB DUP2 ADD SWAP1 PUSH2 0x273 SWAP2 SWAP1 PUSH2 0xFCC JUMP JUMPDEST PUSH2 0x866 JUMP JUMPDEST STOP JUMPDEST PUSH2 0x282 PUSH2 0xBA4 JUMP JUMPDEST PUSH1 0x40 MLOAD PUSH2 0x28F SWAP2 SWAP1 PUSH2 0x1190 JUMP JUMPDEST PUSH1 0x40 MLOAD DUP1 SWAP2 SUB SWAP1 RETURN JUMPDEST PUSH2 0x2B2 PUSH1 0x4 DUP1 CALLDATASIZE SUB DUP2 ADD SWAP1 PUSH2 0x2AD SWAP2 SWAP1 PUSH2 0x1141 JUMP JUMPDEST PUSH2 0xBBC JUMP JUMPDEST STOP JUMPDEST PUSH2 0x2CE PUSH1 0x4 DUP1 CALLDATASIZE SUB DUP2 ADD SWAP1 PUSH2 0x2C9 SWAP2 SWAP1 PUSH2 0xFCC JUMP JUMPDEST PUSH2 0xC4F JUMP JUMPDEST STOP JUMPDEST PUSH2 0x2EA PUSH1 0x4 DUP1 CALLDATASIZE SUB DUP2 ADD SWAP1 PUSH2 0x2E5 SWAP2 SWAP1 PUSH2 0x1141 JUMP JUMPDEST PUSH2 0xCDF JUMP JUMPDEST STOP JUMPDEST PUSH2 0x2F4 PUSH2 0xD82 JUMP JUMPDEST PUSH1 0x40 MLOAD PUSH2 0x301 SWAP2 SWAP1 PUSH2 0x1190 JUMP JUMPDEST PUSH1 0x40 MLOAD DUP1 SWAP2 SUB SWAP1 RETURN JUMPDEST PUSH2 0x324 PUSH1 0x4 DUP1 CALLDATASIZE SUB DUP2 ADD SWAP1 PUSH2 0x31F SWAP2 SWAP1 PUSH2 0x1141 JUMP JUMPDEST PUSH2 0xD9A JUMP JUMPDEST STOP JUMPDEST PUSH2 0x340 PUSH1 0x4 DUP1 CALLDATASIZE SUB DUP2 ADD SWAP1 PUSH2 0x33B SWAP2 SWAP1 PUSH2 0xF3F JUMP JUMPDEST PUSH2 0xE3D JUMP JUMPDEST STOP JUMPDEST PUSH1 0x0 PUSH1 0x2 PUSH1 0x0 SWAP1 SLOAD SWAP1 PUSH2 0x100 EXP SWAP1 DIV PUSH20 0xFFFFFFFFFFFFFFFFFFFFFFFFFFFFFFFFFFFFFFFF AND PUSH20 0xFFFFFFFFFFFFFFFFFFFFFFFFFFFFFFFFFFFFFFFF AND PUSH4 0x70A08231 DUP4 PUSH1 0x40 MLOAD DUP3 PUSH4 0xFFFFFFFF AND PUSH1 0xE0 SHL DUP2 MSTORE PUSH1 0x4 ADD PUSH2 0x39F SWAP2 SWAP1 PUSH2 0x1190 JUMP JUMPDEST PUSH1 0x20 PUSH1 0x40 MLOAD DUP1 DUP4 SUB DUP2 DUP7 GAS STATICCALL ISZERO DUP1 ISZERO PUSH2 0x3BC JUMPI RETURNDATASIZE PUSH1 0x0 DUP1 RETURNDATACOPY RETURNDATASIZE PUSH1 0x0 REVERT JUMPDEST POP POP POP POP PUSH1 0x40 MLOAD RETURNDATASIZE PUSH1 0x1F NOT PUSH1 0x1F DUP3 ADD AND DUP3 ADD DUP1 PUSH1 0x40 MSTORE POP DUP2 ADD SWAP1 PUSH2 0x3E0 SWAP2 SWAP1 PUSH2 0x11C0 JUMP JUMPDEST SWAP1 POP SWAP2 SWAP1 POP JUMP JUMPDEST PUSH1 0x0 PUSH1 0x1 PUSH1 0x0 SWAP1 SLOAD SWAP1 PUSH2 0x100 EXP SWAP1 DIV PUSH20 0xFFFFFFFFFFFFFFFFFFFFFFFFFFFFFFFFFFFFFFFF AND PUSH20 0xFFFFFFFFFFFFFFFFFFFFFFFFFFFFFFFFFFFFFFFF AND PUSH4 0x2BCE3FBE DUP4 PUSH1 0x40 MLOAD DUP3 PUSH4 0xFFFFFFFF AND PUSH1 0xE0 SHL DUP2 MSTORE PUSH1 0x4 ADD PUSH2 0x444 SWAP2 SWAP1 PUSH2 0xF85 JUMP JUMPDEST PUSH1 0x20 PUSH1 0x40 MLOAD DUP1 DUP4 SUB DUP2 DUP7 GAS STATICCALL ISZERO DUP1 ISZERO PUSH2 0x461 JUMPI RETURNDATASIZE PUSH1 0x0 DUP1 RETURNDATACOPY RETURNDATASIZE PUSH1 0x0 REVERT JUMPDEST POP POP POP POP PUSH1 0x40 MLOAD RETURNDATASIZE PUSH1 0x1F NOT PUSH1 0x1F DUP3 ADD AND DUP3 ADD DUP1 PUSH1 0x40 MSTORE POP DUP2 ADD SWAP1 PUSH2 0x485 SWAP2 SWAP1 PUSH2 0x11C0 JUMP JUMPDEST SWAP1 POP SWAP2 SWAP1 POP JUMP JUMPDEST PUSH1 0x0 DUP1 PUSH1 0x0 SWAP1 SLOAD SWAP1 PUSH2 0x100 EXP SWAP1 DIV PUSH20 0xFFFFFFFFFFFFFFFFFFFFFFFFFFFFFFFFFFFFFFFF AND PUSH20 0xFFFFFFFFFFFFFFFFFFFFFFFFFFFFFFFFFFFFFFFF AND PUSH4 0x70A08231 DUP4 PUSH1 0x40 MLOAD DUP3 PUSH4 0xFFFFFFFF AND PUSH1 0xE0 SHL DUP2 MSTORE PUSH1 0x4 ADD PUSH2 0x4E8 SWAP2 SWAP1 PUSH2 0x1190 JUMP JUMPDEST PUSH1 0x20 PUSH1 0x40 MLOAD DUP1 DUP4 SUB DUP2 DUP7 GAS STATICCALL ISZERO DUP1 ISZERO PUSH2 0x505 JUMPI RETURNDATASIZE PUSH1 0x0 DUP1 RETURNDATACOPY RETURNDATASIZE PUSH1 0x0 REVERT JUMPDEST POP POP POP POP PUSH1 0x40 MLOAD RETURNDATASIZE PUSH1 0x1F NOT PUSH1 0x1F DUP3 ADD AND DUP3 ADD DUP1 PUSH1 0x40 MSTORE POP DUP2 ADD SWAP1 PUSH2 0x529 SWAP2 SWAP1 PUSH2 0x11C0 JUMP JUMPDEST SWAP1 POP SWAP2 SWAP1 POP JUMP JUMPDEST PUSH1 0x0 PUSH1 0x2 PUSH1 0x0 SWAP1 SLOAD SWAP1 PUSH2 0x100 EXP SWAP1 DIV PUSH20 0xFFFFFFFFFFFFFFFFFFFFFFFFFFFFFFFFFFFFFFFF AND PUSH20 0xFFFFFFFFFFFFFFFFFFFFFFFFFFFFFFFFFFFFFFFF AND PUSH4 0x3EE8EB6E DUP4 PUSH1 0x40 MLOAD DUP3 PUSH4 0xFFFFFFFF AND PUSH1 0xE0 SHL DUP2 MSTORE PUSH1 0x4 ADD PUSH2 0x58D SWAP2 SWAP1 PUSH2 0xF85 JUMP JUMPDEST PUSH1 0x20 PUSH1 0x40 MLOAD DUP1 DUP4 SUB DUP2 DUP7 GAS STATICCALL ISZERO DUP1 ISZERO PUSH2 0x5AA JUMPI RETURNDATASIZE PUSH1 0x0 DUP1 RETURNDATACOPY RETURNDATASIZE PUSH1 0x0 REVERT JUMPDEST POP POP POP POP PUSH1 0x40 MLOAD RETURNDATASIZE PUSH1 0x1F NOT PUSH1 0x1F DUP3 ADD AND DUP3 ADD DUP1 PUSH1 0x40 MSTORE POP DUP2 ADD SWAP1 PUSH2 0x5CE SWAP2 SWAP1 PUSH2 0x11C0 JUMP JUMPDEST SWAP1 POP SWAP2 SWAP1 POP JUMP JUMPDEST PUSH1 0x0 DUP1 SLOAD SWAP1 PUSH2 0x100 EXP SWAP1 DIV PUSH20 0xFFFFFFFFFFFFFFFFFFFFFFFFFFFFFFFFFFFFFFFF AND PUSH20 0xFFFFFFFFFFFFFFFFFFFFFFFFFFFFFFFFFFFFFFFF AND PUSH4 0x23B872DD DUP5 DUP5 DUP5 PUSH1 0x40 MLOAD DUP5 PUSH4 0xFFFFFFFF AND PUSH1 0xE0 SHL DUP2 MSTORE PUSH1 0x4 ADD PUSH2 0x632 SWAP4 SWAP3 SWAP2 SWAP1 PUSH2 0x11ED JUMP JUMPDEST PUSH1 0x20 PUSH1 0x40 MLOAD DUP1 DUP4 SUB DUP2 PUSH1 0x0 DUP8 GAS CALL ISZERO DUP1 ISZERO PUSH2 0x651 JUMPI RETURNDATASIZE PUSH1 0x0 DUP1 RETURNDATACOPY RETURNDATASIZE PUSH1 0x0 REVERT JUMPDEST POP POP POP POP PUSH1 0x40 MLOAD RETURNDATASIZE PUSH1 0x1F NOT PUSH1 0x1F DUP3 ADD AND DUP3 ADD DUP1 PUSH1 0x40 MSTORE POP DUP2 ADD SWAP1 PUSH2 0x675 SWAP2 SWAP1 PUSH2 0x125C JUMP JUMPDEST POP POP POP POP JUMP JUMPDEST PUSH1 0x60 DUP1 PUSH1 0x2 PUSH1 0x0 SWAP1 SLOAD SWAP1 PUSH2 0x100 EXP SWAP1 DIV PUSH20 0xFFFFFFFFFFFFFFFFFFFFFFFFFFFFFFFFFFFFFFFF AND PUSH20 0xFFFFFFFFFFFFFFFFFFFFFFFFFFFFFFFFFFFFFFFF AND PUSH4 0x3A73C0B7 DUP5 PUSH1 0x40 MLOAD DUP3 PUSH4 0xFFFFFFFF AND PUSH1 0xE0 SHL DUP2 MSTORE PUSH1 0x4 ADD PUSH2 0x6D9 SWAP2 SWAP1 PUSH2 0x1190 JUMP JUMPDEST PUSH1 0x0 PUSH1 0x40 MLOAD DUP1 DUP4 SUB DUP2 DUP7 GAS STATICCALL ISZERO DUP1 ISZERO PUSH2 0x6F6 JUMPI RETURNDATASIZE PUSH1 0x0 DUP1 RETURNDATACOPY RETURNDATASIZE PUSH1 0x0 REVERT JUMPDEST POP POP POP POP PUSH1 0x40 MLOAD RETURNDATASIZE PUSH1 0x0 DUP3 RETURNDATACOPY RETURNDATASIZE PUSH1 0x1F NOT PUSH1 0x1F DUP3 ADD AND DUP3 ADD DUP1 PUSH1 0x40 MSTORE POP DUP2 ADD SWAP1 PUSH2 0x71F SWAP2 SWAP1 PUSH2 0x13E2 JUMP JUMPDEST SWAP2 POP SWAP2 POP SWAP2 POP SWAP2 JUMP JUMPDEST PUSH1 0x60 DUP1 PUSH1 0x1 PUSH1 0x0 SWAP1 SLOAD SWAP1 PUSH2 0x100 EXP SWAP1 DIV PUSH20 0xFFFFFFFFFFFFFFFFFFFFFFFFFFFFFFFFFFFFFFFF AND PUSH20 0xFFFFFFFFFFFFFFFFFFFFFFFFFFFFFFFFFFFFFFFF AND PUSH4 0x8462151C DUP5 PUSH1 0x40 MLOAD DUP3 PUSH4 0xFFFFFFFF AND PUSH1 0xE0 SHL DUP2 MSTORE PUSH1 0x4 ADD PUSH2 0x786 SWAP2 SWAP1 PUSH2 0x1190 JUMP JUMPDEST PUSH1 0x0 PUSH1 0x40 MLOAD DUP1 DUP4 SUB DUP2 DUP7 GAS STATICCALL ISZERO DUP1 ISZERO PUSH2 0x7A3 JUMPI RETURNDATASIZE PUSH1 0x0 DUP1 RETURNDATACOPY RETURNDATASIZE PUSH1 0x0 REVERT JUMPDEST POP POP POP POP PUSH1 0x40 MLOAD RETURNDATASIZE PUSH1 0x0 DUP3 RETURNDATACOPY RETURNDATASIZE PUSH1 0x1F NOT PUSH1 0x1F DUP3 ADD AND DUP3 ADD DUP1 PUSH1 0x40 MSTORE POP DUP2 ADD SWAP1 PUSH2 0x7CC SWAP2 SWAP1 PUSH2 0x13E2 JUMP JUMPDEST SWAP2 POP SWAP2 POP SWAP2 POP SWAP2 JUMP JUMPDEST PUSH1 0x0 DUP1 SLOAD SWAP1 PUSH2 0x100 EXP SWAP1 DIV PUSH20 0xFFFFFFFFFFFFFFFFFFFFFFFFFFFFFFFFFFFFFFFF AND PUSH20 0xFFFFFFFFFFFFFFFFFFFFFFFFFFFFFFFFFFFFFFFF AND PUSH4 0xF001B421 DUP4 DUP4 PUSH1 0x40 MLOAD DUP4 PUSH4 0xFFFFFFFF AND PUSH1 0xE0 SHL DUP2 MSTORE PUSH1 0x4 ADD PUSH2 0x830 SWAP3 SWAP2 SWAP1 PUSH2 0x145A JUMP JUMPDEST PUSH1 0x0 PUSH1 0x40 MLOAD DUP1 DUP4 SUB DUP2 PUSH1 0x0 DUP8 DUP1 EXTCODESIZE ISZERO DUP1 ISZERO PUSH2 0x84A JUMPI PUSH1 0x0 DUP1 REVERT JUMPDEST POP GAS CALL ISZERO DUP1 ISZERO PUSH2 0x85E JUMPI RETURNDATASIZE PUSH1 0x0 DUP1 RETURNDATACOPY RETURNDATASIZE PUSH1 0x0 REVERT JUMPDEST POP POP POP POP POP POP JUMP JUMPDEST DUP1 PUSH1 0x0 DUP1 SLOAD SWAP1 PUSH2 0x100 EXP SWAP1 DIV PUSH20 0xFFFFFFFFFFFFFFFFFFFFFFFFFFFFFFFFFFFFFFFF AND PUSH20 0xFFFFFFFFFFFFFFFFFFFFFFFFFFFFFFFFFFFFFFFF AND PUSH4 0x70A08231 CALLER PUSH1 0x40 MLOAD DUP3 PUSH4 0xFFFFFFFF AND PUSH1 0xE0 SHL DUP2 MSTORE PUSH1 0x4 ADD PUSH2 0x8C0 SWAP2 SWAP1 PUSH2 0x1190 JUMP JUMPDEST PUSH1 0x20 PUSH1 0x40 MLOAD DUP1 DUP4 SUB DUP2 DUP7 GAS STATICCALL ISZERO DUP1 ISZERO PUSH2 0x8DD JUMPI RETURNDATASIZE PUSH1 0x0 DUP1 RETURNDATACOPY RETURNDATASIZE PUSH1 0x0 REVERT JUMPDEST POP POP POP POP PUSH1 0x40 MLOAD RETURNDATASIZE PUSH1 0x1F NOT PUSH1 0x1F DUP3 ADD AND DUP3 ADD DUP1 PUSH1 0x40 MSTORE POP DUP2 ADD SWAP1 PUSH2 0x901 SWAP2 SWAP1 PUSH2 0x11C0 JUMP JUMPDEST LT ISZERO PUSH2 0x942 JUMPI PUSH1 0x40 MLOAD PUSH32 0x8C379A000000000000000000000000000000000000000000000000000000000 DUP2 MSTORE PUSH1 0x4 ADD PUSH2 0x939 SWAP1 PUSH2 0x14E0 JUMP JUMPDEST PUSH1 0x40 MLOAD DUP1 SWAP2 SUB SWAP1 REVERT JUMPDEST PUSH1 0x0 PUSH1 0x64 PUSH1 0x28 DUP4 PUSH2 0x953 SWAP2 SWAP1 PUSH2 0x152F JUMP JUMPDEST PUSH2 0x95D SWAP2 SWAP1 PUSH2 0x15A0 JUMP JUMPDEST SWAP1 POP PUSH1 0x0 PUSH1 0x64 PUSH1 0x1E DUP5 PUSH2 0x970 SWAP2 SWAP1 PUSH2 0x152F JUMP JUMPDEST PUSH2 0x97A SWAP2 SWAP1 PUSH2 0x15A0 JUMP JUMPDEST SWAP1 POP PUSH1 0x0 PUSH1 0x64 PUSH1 0x1E DUP6 PUSH2 0x98D SWAP2 SWAP1 PUSH2 0x152F JUMP JUMPDEST PUSH2 0x997 SWAP2 SWAP1 PUSH2 0x15A0 JUMP JUMPDEST SWAP1 POP PUSH1 0x0 DUP1 SLOAD SWAP1 PUSH2 0x100 EXP SWAP1 DIV PUSH20 0xFFFFFFFFFFFFFFFFFFFFFFFFFFFFFFFFFFFFFFFF AND PUSH20 0xFFFFFFFFFFFFFFFFFFFFFFFFFFFFFFFFFFFFFFFF AND PUSH4 0xA9059CBB PUSH20 0x40D5568FE100DBC06A5ED91862B85250F54881E2 DUP6 PUSH1 0x40 MLOAD DUP4 PUSH4 0xFFFFFFFF AND PUSH1 0xE0 SHL DUP2 MSTORE PUSH1 0x4 ADD PUSH2 0xA08 SWAP3 SWAP2 SWAP1 PUSH2 0x145A JUMP JUMPDEST PUSH1 0x20 PUSH1 0x40 MLOAD DUP1 DUP4 SUB DUP2 PUSH1 0x0 DUP8 GAS CALL ISZERO DUP1 ISZERO PUSH2 0xA27 JUMPI RETURNDATASIZE PUSH1 0x0 DUP1 RETURNDATACOPY RETURNDATASIZE PUSH1 0x0 REVERT JUMPDEST POP POP POP POP PUSH1 0x40 MLOAD RETURNDATASIZE PUSH1 0x1F NOT PUSH1 0x1F DUP3 ADD AND DUP3 ADD DUP1 PUSH1 0x40 MSTORE POP DUP2 ADD SWAP1 PUSH2 0xA4B SWAP2 SWAP1 PUSH2 0x125C JUMP JUMPDEST POP PUSH1 0x0 DUP1 SLOAD SWAP1 PUSH2 0x100 EXP SWAP1 DIV PUSH20 0xFFFFFFFFFFFFFFFFFFFFFFFFFFFFFFFFFFFFFFFF AND PUSH20 0xFFFFFFFFFFFFFFFFFFFFFFFFFFFFFFFFFFFFFFFF AND PUSH4 0xA9059CBB CALLER DUP5 PUSH1 0x40 MLOAD DUP4 PUSH4 0xFFFFFFFF AND PUSH1 0xE0 SHL DUP2 MSTORE PUSH1 0x4 ADD PUSH2 0xAA7 SWAP3 SWAP2 SWAP1 PUSH2 0x145A JUMP JUMPDEST PUSH1 0x20 PUSH1 0x40 MLOAD DUP1 DUP4 SUB DUP2 PUSH1 0x0 DUP8 GAS CALL ISZERO DUP1 ISZERO PUSH2 0xAC6 JUMPI RETURNDATASIZE PUSH1 0x0 DUP1 RETURNDATACOPY RETURNDATASIZE PUSH1 0x0 REVERT JUMPDEST POP POP POP POP PUSH1 0x40 MLOAD RETURNDATASIZE PUSH1 0x1F NOT PUSH1 0x1F DUP3 ADD AND DUP3 ADD DUP1 PUSH1 0x40 MSTORE POP DUP2 ADD SWAP1 PUSH2 0xAEA SWAP2 SWAP1 PUSH2 0x125C JUMP JUMPDEST POP PUSH1 0x0 DUP1 SLOAD SWAP1 PUSH2 0x100 EXP SWAP1 DIV PUSH20 0xFFFFFFFFFFFFFFFFFFFFFFFFFFFFFFFFFFFFFFFF AND PUSH20 0xFFFFFFFFFFFFFFFFFFFFFFFFFFFFFFFFFFFFFFFF AND PUSH4 0xA9059CBB PUSH20 0xC888636228A82F0F59ABAE53B9850500D0BA1D41 DUP4 PUSH1 0x40 MLOAD DUP4 PUSH4 0xFFFFFFFF AND PUSH1 0xE0 SHL DUP2 MSTORE PUSH1 0x4 ADD PUSH2 0xB5A SWAP3 SWAP2 SWAP1 PUSH2 0x145A JUMP JUMPDEST PUSH1 0x20 PUSH1 0x40 MLOAD DUP1 DUP4 SUB DUP2 PUSH1 0x0 DUP8 GAS CALL ISZERO DUP1 ISZERO PUSH2 0xB79 JUMPI RETURNDATASIZE PUSH1 0x0 DUP1 RETURNDATACOPY RETURNDATASIZE PUSH1 0x0 REVERT JUMPDEST POP POP POP POP PUSH1 0x40 MLOAD RETURNDATASIZE PUSH1 0x1F NOT PUSH1 0x1F DUP3 ADD AND DUP3 ADD DUP1 PUSH1 0x40 MSTORE POP DUP2 ADD SWAP1 PUSH2 0xB9D SWAP2 SWAP1 PUSH2 0x125C JUMP JUMPDEST POP POP POP POP POP JUMP JUMPDEST PUSH20 0x40D5568FE100DBC06A5ED91862B85250F54881E2 DUP2 JUMP JUMPDEST PUSH1 0x2 PUSH1 0x0 SWAP1 SLOAD SWAP1 PUSH2 0x100 EXP SWAP1 DIV PUSH20 0xFFFFFFFFFFFFFFFFFFFFFFFFFFFFFFFFFFFFFFFF AND PUSH20 0xFFFFFFFFFFFFFFFFFFFFFFFFFFFFFFFFFFFFFFFF AND PUSH4 0x40C10F19 DUP4 DUP4 PUSH1 0x40 MLOAD DUP4 PUSH4 0xFFFFFFFF AND PUSH1 0xE0 SHL DUP2 MSTORE PUSH1 0x4 ADD PUSH2 0xC19 SWAP3 SWAP2 SWAP1 PUSH2 0x145A JUMP JUMPDEST PUSH1 0x0 PUSH1 0x40 MLOAD DUP1 DUP4 SUB DUP2 PUSH1 0x0 DUP8 DUP1 EXTCODESIZE ISZERO DUP1 ISZERO PUSH2 0xC33 JUMPI PUSH1 0x0 DUP1 REVERT JUMPDEST POP GAS CALL ISZERO DUP1 ISZERO PUSH2 0xC47 JUMPI RETURNDATASIZE PUSH1 0x0 DUP1 RETURNDATACOPY RETURNDATASIZE PUSH1 0x0 REVERT JUMPDEST POP POP POP POP POP POP JUMP JUMPDEST PUSH1 0x1 PUSH1 0x0 SWAP1 SLOAD SWAP1 PUSH2 0x100 EXP SWAP1 DIV PUSH20 0xFFFFFFFFFFFFFFFFFFFFFFFFFFFFFFFFFFFFFFFF AND PUSH20 0xFFFFFFFFFFFFFFFFFFFFFFFFFFFFFFFFFFFFFFFF AND PUSH4 0xCE90EC2 DUP3 PUSH1 0x40 MLOAD DUP3 PUSH4 0xFFFFFFFF AND PUSH1 0xE0 SHL DUP2 MSTORE PUSH1 0x4 ADD PUSH2 0xCAA SWAP2 SWAP1 PUSH2 0xF85 JUMP JUMPDEST PUSH1 0x0 PUSH1 0x40 MLOAD DUP1 DUP4 SUB DUP2 PUSH1 0x0 DUP8 DUP1 EXTCODESIZE ISZERO DUP1 ISZERO PUSH2 0xCC4 JUMPI PUSH1 0x0 DUP1 REVERT JUMPDEST POP GAS CALL ISZERO DUP1 ISZERO PUSH2 0xCD8 JUMPI RETURNDATASIZE PUSH1 0x0 DUP1 RETURNDATACOPY RETURNDATASIZE PUSH1 0x0 REVERT JUMPDEST POP POP POP POP POP JUMP JUMPDEST PUSH1 0x0 DUP1 SLOAD SWAP1 PUSH2 0x100 EXP SWAP1 DIV PUSH20 0xFFFFFFFFFFFFFFFFFFFFFFFFFFFFFFFFFFFFFFFF AND PUSH20 0xFFFFFFFFFFFFFFFFFFFFFFFFFFFFFFFFFFFFFFFF AND PUSH4 0xA9059CBB DUP4 DUP4 PUSH1 0x40 MLOAD DUP4 PUSH4 0xFFFFFFFF AND PUSH1 0xE0 SHL DUP2 MSTORE PUSH1 0x4 ADD PUSH2 0xD3A SWAP3 SWAP2 SWAP1 PUSH2 0x145A JUMP JUMPDEST PUSH1 0x20 PUSH1 0x40 MLOAD DUP1 DUP4 SUB DUP2 PUSH1 0x0 DUP8 GAS CALL ISZERO DUP1 ISZERO PUSH2 0xD59 JUMPI RETURNDATASIZE PUSH1 0x0 DUP1 RETURNDATACOPY RETURNDATASIZE PUSH1 0x0 REVERT JUMPDEST POP POP POP POP PUSH1 0x40 MLOAD RETURNDATASIZE PUSH1 0x1F NOT PUSH1 0x1F DUP3 ADD AND DUP3 ADD DUP1 PUSH1 0x40 MSTORE POP DUP2 ADD SWAP1 PUSH2 0xD7D SWAP2 SWAP1 PUSH2 0x125C JUMP JUMPDEST POP POP POP JUMP JUMPDEST PUSH20 0xC888636228A82F0F59ABAE53B9850500D0BA1D41 DUP2 JUMP JUMPDEST PUSH1 0x0 DUP1 SLOAD SWAP1 PUSH2 0x100 EXP SWAP1 DIV PUSH20 0xFFFFFFFFFFFFFFFFFFFFFFFFFFFFFFFFFFFFFFFF AND PUSH20 0xFFFFFFFFFFFFFFFFFFFFFFFFFFFFFFFFFFFFFFFF AND PUSH4 0x95EA7B3 DUP4 DUP4 PUSH1 0x40 MLOAD DUP4 PUSH4 0xFFFFFFFF AND PUSH1 0xE0 SHL DUP2 MSTORE PUSH1 0x4 ADD PUSH2 0xDF5 SWAP3 SWAP2 SWAP1 PUSH2 0x145A JUMP JUMPDEST PUSH1 0x20 PUSH1 0x40 MLOAD DUP1 DUP4 SUB DUP2 PUSH1 0x0 DUP8 GAS CALL ISZERO DUP1 ISZERO PUSH2 0xE14 JUMPI RETURNDATASIZE PUSH1 0x0 DUP1 RETURNDATACOPY RETURNDATASIZE PUSH1 0x0 REVERT JUMPDEST POP POP POP POP PUSH1 0x40 MLOAD RETURNDATASIZE PUSH1 0x1F NOT PUSH1 0x1F DUP3 ADD AND DUP3 ADD DUP1 PUSH1 0x40 MSTORE POP DUP2 ADD SWAP1 PUSH2 0xE38 SWAP2 SWAP1 PUSH2 0x125C JUMP JUMPDEST POP POP POP JUMP JUMPDEST PUSH1 0x1 PUSH1 0x0 SWAP1 SLOAD SWAP1 PUSH2 0x100 EXP SWAP1 DIV PUSH20 0xFFFFFFFFFFFFFFFFFFFFFFFFFFFFFFFFFFFFFFFF AND PUSH20 0xFFFFFFFFFFFFFFFFFFFFFFFFFFFFFFFFFFFFFFFF AND PUSH4 0x6A627842 DUP3 PUSH1 0x40 MLOAD DUP3 PUSH4 0xFFFFFFFF AND PUSH1 0xE0 SHL DUP2 MSTORE PUSH1 0x4 ADD PUSH2 0xE98 SWAP2 SWAP1 PUSH2 0x1190 JUMP JUMPDEST PUSH1 0x0 PUSH1 0x40 MLOAD DUP1 DUP4 SUB DUP2 PUSH1 0x0 DUP8 DUP1 EXTCODESIZE ISZERO DUP1 ISZERO PUSH2 0xEB2 JUMPI PUSH1 0x0 DUP1 REVERT JUMPDEST POP GAS CALL ISZERO DUP1 ISZERO PUSH2 0xEC6 JUMPI RETURNDATASIZE PUSH1 0x0 DUP1 RETURNDATACOPY RETURNDATASIZE PUSH1 0x0 REVERT JUMPDEST POP POP POP POP POP JUMP JUMPDEST PUSH1 0x0 PUSH1 0x40 MLOAD SWAP1 POP SWAP1 JUMP JUMPDEST PUSH1 0x0 DUP1 REVERT JUMPDEST PUSH1 0x0 DUP1 REVERT JUMPDEST PUSH1 0x0 PUSH20 0xFFFFFFFFFFFFFFFFFFFFFFFFFFFFFFFFFFFFFFFF DUP3 AND SWAP1 POP SWAP2 SWAP1 POP JUMP JUMPDEST PUSH1 0x0 PUSH2 0xF0C DUP3 PUSH2 0xEE1 JUMP JUMPDEST SWAP1 POP SWAP2 SWAP1 POP JUMP JUMPDEST PUSH2 0xF1C DUP2 PUSH2 0xF01 JUMP JUMPDEST DUP2 EQ PUSH2 0xF27 JUMPI PUSH1 0x0 DUP1 REVERT JUMPDEST POP JUMP JUMPDEST PUSH1 0x0 DUP2 CALLDATALOAD SWAP1 POP PUSH2 0xF39 DUP2 PUSH2 0xF13 JUMP JUMPDEST SWAP3 SWAP2 POP POP JUMP JUMPDEST PUSH1 0x0 PUSH1 0x20 DUP3 DUP5 SUB SLT ISZERO PUSH2 0xF55 JUMPI PUSH2 0xF54 PUSH2 0xED7 JUMP JUMPDEST JUMPDEST PUSH1 0x0 PUSH2 0xF63 DUP5 DUP3 DUP6 ADD PUSH2 0xF2A JUMP JUMPDEST SWAP2 POP POP SWAP3 SWAP2 POP POP JUMP JUMPDEST PUSH1 0x0 DUP2 SWAP1 POP SWAP2 SWAP1 POP JUMP JUMPDEST PUSH2 0xF7F DUP2 PUSH2 0xF6C JUMP JUMPDEST DUP3 MSTORE POP POP JUMP JUMPDEST PUSH1 0x0 PUSH1 0x20 DUP3 ADD SWAP1 POP PUSH2 0xF9A PUSH1 0x0 DUP4 ADD DUP5 PUSH2 0xF76 JUMP JUMPDEST SWAP3 SWAP2 POP POP JUMP JUMPDEST PUSH2 0xFA9 DUP2 PUSH2 0xF6C JUMP JUMPDEST DUP2 EQ PUSH2 0xFB4 JUMPI PUSH1 0x0 DUP1 REVERT JUMPDEST POP JUMP JUMPDEST PUSH1 0x0 DUP2 CALLDATALOAD SWAP1 POP PUSH2 0xFC6 DUP2 PUSH2 0xFA0 JUMP JUMPDEST SWAP3 SWAP2 POP POP JUMP JUMPDEST PUSH1 0x0 PUSH1 0x20 DUP3 DUP5 SUB SLT ISZERO PUSH2 0xFE2 JUMPI PUSH2 0xFE1 PUSH2 0xED7 JUMP JUMPDEST JUMPDEST PUSH1 0x0 PUSH2 0xFF0 DUP5 DUP3 DUP6 ADD PUSH2 0xFB7 JUMP JUMPDEST SWAP2 POP POP SWAP3 SWAP2 POP POP JUMP JUMPDEST PUSH1 0x0 DUP1 PUSH1 0x0 PUSH1 0x60 DUP5 DUP7 SUB SLT ISZERO PUSH2 0x1012 JUMPI PUSH2 0x1011 PUSH2 0xED7 JUMP JUMPDEST JUMPDEST PUSH1 0x0 PUSH2 0x1020 DUP7 DUP3 DUP8 ADD PUSH2 0xF2A JUMP JUMPDEST SWAP4 POP POP PUSH1 0x20 PUSH2 0x1031 DUP7 DUP3 DUP8 ADD PUSH2 0xF2A JUMP JUMPDEST SWAP3 POP POP PUSH1 0x40 PUSH2 0x1042 DUP7 DUP3 DUP8 ADD PUSH2 0xFB7 JUMP JUMPDEST SWAP2 POP POP SWAP3 POP SWAP3 POP SWAP3 JUMP JUMPDEST PUSH1 0x0 DUP2 MLOAD SWAP1 POP SWAP2 SWAP1 POP JUMP JUMPDEST PUSH1 0x0 DUP3 DUP3 MSTORE PUSH1 0x20 DUP3 ADD SWAP1 POP SWAP3 SWAP2 POP POP JUMP JUMPDEST PUSH1 0x0 DUP2 SWAP1 POP PUSH1 0x20 DUP3 ADD SWAP1 POP SWAP2 SWAP1 POP JUMP JUMPDEST PUSH2 0x1081 DUP2 PUSH2 0xF6C JUMP JUMPDEST DUP3 MSTORE POP POP JUMP JUMPDEST PUSH1 0x0 PUSH2 0x1093 DUP4 DUP4 PUSH2 0x1078 JUMP JUMPDEST PUSH1 0x20 DUP4 ADD SWAP1 POP SWAP3 SWAP2 POP POP JUMP JUMPDEST PUSH1 0x0 PUSH1 0x20 DUP3 ADD SWAP1 POP SWAP2 SWAP1 POP JUMP JUMPDEST PUSH1 0x0 PUSH2 0x10B7 DUP3 PUSH2 0x104C JUMP JUMPDEST PUSH2 0x10C1 DUP2 DUP6 PUSH2 0x1057 JUMP JUMPDEST SWAP4 POP PUSH2 0x10CC DUP4 PUSH2 0x1068 JUMP JUMPDEST DUP1 PUSH1 0x0 JUMPDEST DUP4 DUP2 LT ISZERO PUSH2 0x10FD JUMPI DUP2 MLOAD PUSH2 0x10E4 DUP9 DUP3 PUSH2 0x1087 JUMP JUMPDEST SWAP8 POP PUSH2 0x10EF DUP4 PUSH2 0x109F JUMP JUMPDEST SWAP3 POP POP PUSH1 0x1 DUP2 ADD SWAP1 POP PUSH2 0x10D0 JUMP JUMPDEST POP DUP6 SWAP4 POP POP POP POP SWAP3 SWAP2 POP POP JUMP JUMPDEST PUSH1 0x0 PUSH1 0x40 DUP3 ADD SWAP1 POP DUP2 DUP2 SUB PUSH1 0x0 DUP4 ADD MSTORE PUSH2 0x1124 DUP2 DUP6 PUSH2 0x10AC JUMP JUMPDEST SWAP1 POP DUP2 DUP2 SUB PUSH1 0x20 DUP4 ADD MSTORE PUSH2 0x1138 DUP2 DUP5 PUSH2 0x10AC JUMP JUMPDEST SWAP1 POP SWAP4 SWAP3 POP POP POP JUMP JUMPDEST PUSH1 0x0 DUP1 PUSH1 0x40 DUP4 DUP6 SUB SLT ISZERO PUSH2 0x1158 JUMPI PUSH2 0x1157 PUSH2 0xED7 JUMP JUMPDEST JUMPDEST PUSH1 0x0 PUSH2 0x1166 DUP6 DUP3 DUP7 ADD PUSH2 0xF2A JUMP JUMPDEST SWAP3 POP POP PUSH1 0x20 PUSH2 0x1177 DUP6 DUP3 DUP7 ADD PUSH2 0xFB7 JUMP JUMPDEST SWAP2 POP POP SWAP3 POP SWAP3 SWAP1 POP JUMP JUMPDEST PUSH2 0x118A DUP2 PUSH2 0xF01 JUMP JUMPDEST DUP3 MSTORE POP POP JUMP JUMPDEST PUSH1 0x0 PUSH1 0x20 DUP3 ADD SWAP1 POP PUSH2 0x11A5 PUSH1 0x0 DUP4 ADD DUP5 PUSH2 0x1181 JUMP JUMPDEST SWAP3 SWAP2 POP POP JUMP JUMPDEST PUSH1 0x0 DUP2 MLOAD SWAP1 POP PUSH2 0x11BA DUP2 PUSH2 0xFA0 JUMP JUMPDEST SWAP3 SWAP2 POP POP JUMP JUMPDEST PUSH1 0x0 PUSH1 0x20 DUP3 DUP5 SUB SLT ISZERO PUSH2 0x11D6 JUMPI PUSH2 0x11D5 PUSH2 0xED7 JUMP JUMPDEST JUMPDEST PUSH1 0x0 PUSH2 0x11E4 DUP5 DUP3 DUP6 ADD PUSH2 0x11AB JUMP JUMPDEST SWAP2 POP POP SWAP3 SWAP2 POP POP JUMP JUMPDEST PUSH1 0x0 PUSH1 0x60 DUP3 ADD SWAP1 POP PUSH2 0x1202 PUSH1 0x0 DUP4 ADD DUP7 PUSH2 0x1181 JUMP JUMPDEST PUSH2 0x120F PUSH1 0x20 DUP4 ADD DUP6 PUSH2 0x1181 JUMP JUMPDEST PUSH2 0x121C PUSH1 0x40 DUP4 ADD DUP5 PUSH2 0xF76 JUMP JUMPDEST SWAP5 SWAP4 POP POP POP POP JUMP JUMPDEST PUSH1 0x0 DUP2 ISZERO ISZERO SWAP1 POP SWAP2 SWAP1 POP JUMP JUMPDEST PUSH2 0x1239 DUP2 PUSH2 0x1224 JUMP JUMPDEST DUP2 EQ PUSH2 0x1244 JUMPI PUSH1 0x0 DUP1 REVERT JUMPDEST POP JUMP JUMPDEST PUSH1 0x0 DUP2 MLOAD SWAP1 POP PUSH2 0x1256 DUP2 PUSH2 0x1230 JUMP JUMPDEST SWAP3 SWAP2 POP POP JUMP JUMPDEST PUSH1 0x0 PUSH1 0x20 DUP3 DUP5 SUB SLT ISZERO PUSH2 0x1272 JUMPI PUSH2 0x1271 PUSH2 0xED7 JUMP JUMPDEST JUMPDEST PUSH1 0x0 PUSH2 0x1280 DUP5 DUP3 DUP6 ADD PUSH2 0x1247 JUMP JUMPDEST SWAP2 POP POP SWAP3 SWAP2 POP POP JUMP JUMPDEST PUSH1 0x0 DUP1 REVERT JUMPDEST PUSH1 0x0 PUSH1 0x1F NOT PUSH1 0x1F DUP4 ADD AND SWAP1 POP SWAP2 SWAP1 POP JUMP JUMPDEST PUSH32 0x4E487B7100000000000000000000000000000000000000000000000000000000 PUSH1 0x0 MSTORE PUSH1 0x41 PUSH1 0x4 MSTORE PUSH1 0x24 PUSH1 0x0 REVERT JUMPDEST PUSH2 0x12D7 DUP3 PUSH2 0x128E JUMP JUMPDEST DUP2 ADD DUP2 DUP2 LT PUSH8 0xFFFFFFFFFFFFFFFF DUP3 GT OR ISZERO PUSH2 0x12F6 JUMPI PUSH2 0x12F5 PUSH2 0x129F JUMP JUMPDEST JUMPDEST DUP1 PUSH1 0x40 MSTORE POP POP POP JUMP JUMPDEST PUSH1 0x0 PUSH2 0x1309 PUSH2 0xECD JUMP JUMPDEST SWAP1 POP PUSH2 0x1315 DUP3 DUP3 PUSH2 0x12CE JUMP JUMPDEST SWAP2 SWAP1 POP JUMP JUMPDEST PUSH1 0x0 PUSH8 0xFFFFFFFFFFFFFFFF DUP3 GT ISZERO PUSH2 0x1335 JUMPI PUSH2 0x1334 PUSH2 0x129F JUMP JUMPDEST JUMPDEST PUSH1 0x20 DUP3 MUL SWAP1 POP PUSH1 0x20 DUP2 ADD SWAP1 POP SWAP2 SWAP1 POP JUMP JUMPDEST PUSH1 0x0 DUP1 REVERT JUMPDEST PUSH1 0x0 PUSH2 0x135E PUSH2 0x1359 DUP5 PUSH2 0x131A JUMP JUMPDEST PUSH2 0x12FF JUMP JUMPDEST SWAP1 POP DUP1 DUP4 DUP3 MSTORE PUSH1 0x20 DUP3 ADD SWAP1 POP PUSH1 0x20 DUP5 MUL DUP4 ADD DUP6 DUP2 GT ISZERO PUSH2 0x1381 JUMPI PUSH2 0x1380 PUSH2 0x1346 JUMP JUMPDEST JUMPDEST DUP4 JUMPDEST DUP2 DUP2 LT ISZERO PUSH2 0x13AA JUMPI DUP1 PUSH2 0x1396 DUP9 DUP3 PUSH2 0x11AB JUMP JUMPDEST DUP5 MSTORE PUSH1 0x20 DUP5 ADD SWAP4 POP POP PUSH1 0x20 DUP2 ADD SWAP1 POP PUSH2 0x1383 JUMP JUMPDEST POP POP POP SWAP4 SWAP3 POP POP POP JUMP JUMPDEST PUSH1 0x0 DUP3 PUSH1 0x1F DUP4 ADD SLT PUSH2 0x13C9 JUMPI PUSH2 0x13C8 PUSH2 0x1289 JUMP JUMPDEST JUMPDEST DUP2 MLOAD PUSH2 0x13D9 DUP5 DUP3 PUSH1 0x20 DUP7 ADD PUSH2 0x134B JUMP JUMPDEST SWAP2 POP POP SWAP3 SWAP2 POP POP JUMP JUMPDEST PUSH1 0x0 DUP1 PUSH1 0x40 DUP4 DUP6 SUB SLT ISZERO PUSH2 0x13F9 JUMPI PUSH2 0x13F8 PUSH2 0xED7 JUMP JUMPDEST JUMPDEST PUSH1 0x0 DUP4 ADD MLOAD PUSH8 0xFFFFFFFFFFFFFFFF DUP2 GT ISZERO PUSH2 0x1417 JUMPI PUSH2 0x1416 PUSH2 0xEDC JUMP JUMPDEST JUMPDEST PUSH2 0x1423 DUP6 DUP3 DUP7 ADD PUSH2 0x13B4 JUMP JUMPDEST SWAP3 POP POP PUSH1 0x20 DUP4 ADD MLOAD PUSH8 0xFFFFFFFFFFFFFFFF DUP2 GT ISZERO PUSH2 0x1444 JUMPI PUSH2 0x1443 PUSH2 0xEDC JUMP JUMPDEST JUMPDEST PUSH2 0x1450 DUP6 DUP3 DUP7 ADD PUSH2 0x13B4 JUMP JUMPDEST SWAP2 POP POP SWAP3 POP SWAP3 SWAP1 POP JUMP JUMPDEST PUSH1 0x0 PUSH1 0x40 DUP3 ADD SWAP1 POP PUSH2 0x146F PUSH1 0x0 DUP4 ADD DUP6 PUSH2 0x1181 JUMP JUMPDEST PUSH2 0x147C PUSH1 0x20 DUP4 ADD DUP5 PUSH2 0xF76 JUMP JUMPDEST SWAP4 SWAP3 POP POP POP JUMP JUMPDEST PUSH1 0x0 DUP3 DUP3 MSTORE PUSH1 0x20 DUP3 ADD SWAP1 POP SWAP3 SWAP2 POP POP JUMP JUMPDEST PUSH32 0x496E73756666696369656E742062616C616E6365000000000000000000000000 PUSH1 0x0 DUP3 ADD MSTORE POP JUMP JUMPDEST PUSH1 0x0 PUSH2 0x14CA PUSH1 0x14 DUP4 PUSH2 0x1483 JUMP JUMPDEST SWAP2 POP PUSH2 0x14D5 DUP3 PUSH2 0x1494 JUMP JUMPDEST PUSH1 0x20 DUP3 ADD SWAP1 POP SWAP2 SWAP1 POP JUMP JUMPDEST PUSH1 0x0 PUSH1 0x20 DUP3 ADD SWAP1 POP DUP2 DUP2 SUB PUSH1 0x0 DUP4 ADD MSTORE PUSH2 0x14F9 DUP2 PUSH2 0x14BD JUMP JUMPDEST SWAP1 POP SWAP2 SWAP1 POP JUMP JUMPDEST PUSH32 0x4E487B7100000000000000000000000000000000000000000000000000000000 PUSH1 0x0 MSTORE PUSH1 0x11 PUSH1 0x4 MSTORE PUSH1 0x24 PUSH1 0x0 REVERT JUMPDEST PUSH1 0x0 PUSH2 0x153A DUP3 PUSH2 0xF6C JUMP JUMPDEST SWAP2 POP PUSH2 0x1545 DUP4 PUSH2 0xF6C JUMP JUMPDEST SWAP3 POP DUP3 DUP3 MUL PUSH2 0x1553 DUP2 PUSH2 0xF6C JUMP JUMPDEST SWAP2 POP DUP3 DUP3 DIV DUP5 EQ DUP4 ISZERO OR PUSH2 0x156A JUMPI PUSH2 0x1569 PUSH2 0x1500 JUMP JUMPDEST JUMPDEST POP SWAP3 SWAP2 POP POP JUMP JUMPDEST PUSH32 0x4E487B7100000000000000000000000000000000000000000000000000000000 PUSH1 0x0 MSTORE PUSH1 0x12 PUSH1 0x4 MSTORE PUSH1 0x24 PUSH1 0x0 REVERT JUMPDEST PUSH1 0x0 PUSH2 0x15AB DUP3 PUSH2 0xF6C JUMP JUMPDEST SWAP2 POP PUSH2 0x15B6 DUP4 PUSH2 0xF6C JUMP JUMPDEST SWAP3 POP DUP3 PUSH2 0x15C6 JUMPI PUSH2 0x15C5 PUSH2 0x1571 JUMP JUMPDEST JUMPDEST DUP3 DUP3 DIV SWAP1 POP SWAP3 SWAP2 POP POP JUMP INVALID LOG2 PUSH5 0x6970667358 0x22 SLT KECCAK256 0x4C EXTCODECOPY 0xEA PUSH20 0x11EDD5DB5D695A5AE455FFD900BFC9F3306E2BBC 0xF8 0xDD 0xA9 0x25 0xB0 DUP15 0xC9 SWAP13 PUSH5 0x736F6C6343 STOP ADDMOD SLT STOP CALLER "},"methodIdentifiers":{"DAPPAccount()":"c0790f57","NGOAccount()":"9a044cfa","approveTokens(address,uint256)":"f38488ec","balanceOfCertificateNFT(address)":"0083293e","balanceOfTokens(address)":"2ff57da8","certificatesAndScoresOfCertificateOwner(address)":"717f96d2","disburseTokens(uint256)":"998f90bb","getCertificateScore(uint256)":"3ee8eb6e","getTreeLevel(uint256)":"2bce3fbe","levelUpTree(uint256)":"be4780c2","mintCertificate(address,uint256)":"a5015dd1","mintTree(address)":"fe19b68b","rewardTokens(address,uint256)":"81a4af15","tokensAndLevelsOfTreeOwner(address)":"7a38664e","transferTokens(address,uint256)":"bec3fa17","transferTokensFrom(address,address,uint256)":"52912042"}}}}}