{
  "_format": "hh-sol-artifact-1",
  "contractName": "CertificateNFT",
  "sourceName": "contracts/MetaCert.sol",
  "abi": [
    {
      "anonymous": false,
      "inputs": [
        {
          "indexed": true,
          "internalType": "address",
          "name": "owner",
          "type": "address"
        },
        {
          "indexed": true,
          "internalType": "uint256",
          "name": "tokenId",
          "type": "uint256"
        },
        {
          "indexed": false,
          "internalType": "uint256",
          "name": "score",
          "type": "uint256"
        }
      ],
      "name": "Certification",
      "type": "event"
    },
    {
      "anonymous": false,
      "inputs": [
        {
          "indexed": true,
          "internalType": "address",
          "name": "from",
          "type": "address"
        },
        {
          "indexed": true,
          "internalType": "address",
          "name": "to",
          "type": "address"
        },
        {
          "indexed": true,
          "internalType": "uint256",
          "name": "tokenId",
          "type": "uint256"
        }
      ],
      "name": "Transfer",
      "type": "event"
    },
    {
      "inputs": [
        {
          "internalType": "address",
          "name": "certOwner",
          "type": "address"
        }
      ],
      "name": "balanceOf",
      "outputs": [
        {
          "internalType": "uint256",
          "name": "",
          "type": "uint256"
        }
      ],
      "stateMutability": "view",
      "type": "function"
    },
    {
      "inputs": [
        {
          "internalType": "address",
          "name": "certOwner",
          "type": "address"
        }
      ],
      "name": "certificatesOfOwner",
      "outputs": [
        {
          "internalType": "uint256[]",
          "name": "certificates",
          "type": "uint256[]"
        },
        {
          "internalType": "uint256[]",
          "name": "scores",
          "type": "uint256[]"
        }
      ],
      "stateMutability": "view",
      "type": "function"
    },
    {
      "inputs": [
        {
          "internalType": "uint256",
          "name": "tokenId",
          "type": "uint256"
        }
      ],
      "name": "getCertificateScore",
      "outputs": [
        {
          "internalType": "uint256",
          "name": "",
          "type": "uint256"
        }
      ],
      "stateMutability": "view",
      "type": "function"
    },
    {
      "inputs": [
        {
          "internalType": "address",
          "name": "to",
          "type": "address"
        },
        {
          "internalType": "uint256",
          "name": "score",
          "type": "uint256"
        }
      ],
      "name": "mint",
      "outputs": [],
      "stateMutability": "nonpayable",
      "type": "function"
    },
    {
      "inputs": [],
      "name": "name",
      "outputs": [
        {
          "internalType": "string",
          "name": "",
          "type": "string"
        }
      ],
      "stateMutability": "view",
      "type": "function"
    },
    {
      "inputs": [
        {
          "internalType": "uint256",
          "name": "tokenId",
          "type": "uint256"
        }
      ],
      "name": "ownerOf",
      "outputs": [
        {
          "internalType": "address",
          "name": "",
          "type": "address"
        }
      ],
      "stateMutability": "view",
      "type": "function"
    },
    {
      "inputs": [],
      "name": "symbol",
      "outputs": [
        {
          "internalType": "string",
          "name": "",
          "type": "string"
        }
      ],
      "stateMutability": "view",
      "type": "function"
    },
    {
      "inputs": [],
      "name": "totalSupply",
      "outputs": [
        {
          "internalType": "uint256",
          "name": "",
          "type": "uint256"
        }
      ],
      "stateMutability": "view",
      "type": "function"
    }
  ],
  "bytecode": "0x60806040526040518060400160405280600e81526020017f43657274696669636174654e4654000000000000000000000000000000000000815250600090816200004a919062000320565b506040518060400160405280600481526020017f43455254000000000000000000000000000000000000000000000000000000008152506001908162000091919062000320565b503480156200009f57600080fd5b5062000407565b600081519050919050565b7f4e487b7100000000000000000000000000000000000000000000000000000000600052604160045260246000fd5b7f4e487b7100000000000000000000000000000000000000000000000000000000600052602260045260246000fd5b600060028204905060018216806200012857607f821691505b6020821081036200013e576200013d620000e0565b5b50919050565b60008190508160005260206000209050919050565b60006020601f8301049050919050565b600082821b905092915050565b600060088302620001a87fffffffffffffffffffffffffffffffffffffffffffffffffffffffffffffffff8262000169565b620001b4868362000169565b95508019841693508086168417925050509392505050565b6000819050919050565b6000819050919050565b600062000201620001fb620001f584620001cc565b620001d6565b620001cc565b9050919050565b6000819050919050565b6200021d83620001e0565b620002356200022c8262000208565b84845462000176565b825550505050565b600090565b6200024c6200023d565b6200025981848462000212565b505050565b5b8181101562000281576200027560008262000242565b6001810190506200025f565b5050565b601f821115620002d0576200029a8162000144565b620002a58462000159565b81016020851015620002b5578190505b620002cd620002c48562000159565b8301826200025e565b50505b505050565b600082821c905092915050565b6000620002f560001984600802620002d5565b1980831691505092915050565b6000620003108383620002e2565b9150826002028217905092915050565b6200032b82620000a6565b67ffffffffffffffff811115620003475762000346620000b1565b5b6200035382546200010f565b6200036082828562000285565b600060209050601f83116001811462000398576000841562000383578287015190505b6200038f858262000302565b865550620003ff565b601f198416620003a88662000144565b60005b82811015620003d257848901518255600182019150602085019450602081019050620003ab565b86831015620003f25784890151620003ee601f891682620002e2565b8355505b6001600288020188555050505b505050505050565b610c8a80620004176000396000f3fe608060405234801561001057600080fd5b50600436106100885760003560e01c806340c10f191161005b57806340c10f191461012a5780636352211e1461014657806370a082311461017657806395d89b41146101a657610088565b806306fdde031461008d57806318160ddd146100ab5780633a73c0b7146100c95780633ee8eb6e146100fa575b600080fd5b6100956101c4565b6040516100a2919061084d565b60405180910390f35b6100b3610256565b6040516100c09190610888565b60405180910390f35b6100e360048036038101906100de9190610906565b610260565b6040516100f19291906109f1565b60405180910390f35b610114600480360381019061010f9190610a54565b61042a565b6040516101219190610888565b60405180910390f35b610144600480360381019061013f9190610a81565b610447565b005b610160600480360381019061015b9190610a54565b6106a5565b60405161016d9190610ad0565b60405180910390f35b610190600480360381019061018b9190610906565b6106e2565b60405161019d9190610888565b60405180910390f35b6101ae61072b565b6040516101bb919061084d565b60405180910390f35b6060600080546101d390610b1a565b80601f01602080910402602001604051908101604052809291908181526020018280546101ff90610b1a565b801561024c5780601f106102215761010080835404028352916020019161024c565b820191906000526020600020905b81548152906001019060200180831161022f57829003601f168201915b5050505050905090565b6000600254905090565b6060806000600660008573ffffffffffffffffffffffffffffffffffffffff1673ffffffffffffffffffffffffffffffffffffffff1681526020019081526020016000205490508067ffffffffffffffff8111156102c1576102c0610b4b565b5b6040519080825280602002602001820160405280156102ef5781602001602082028036833780820191505090505b5092508067ffffffffffffffff81111561030c5761030b610b4b565b5b60405190808252806020026020018201604052801561033a5781602001602082028036833780820191505090505b50915060005b8181101561042357600460008673ffffffffffffffffffffffffffffffffffffffff1673ffffffffffffffffffffffffffffffffffffffff168152602001908152602001600020818154811061039957610398610b7a565b5b90600052602060002001548482815181106103b7576103b6610b7a565b5b602002602001018181525050600760008583815181106103da576103d9610b7a565b5b602002602001015181526020019081526020016000205483828151811061040457610403610b7a565b5b602002602001018181525050808061041b90610bd8565b915050610340565b5050915091565b600060076000838152602001908152602001600020549050919050565b6002600081548092919061045a90610bd8565b9190505550600660008373ffffffffffffffffffffffffffffffffffffffff1673ffffffffffffffffffffffffffffffffffffffff16815260200190815260200160002060008154809291906104af90610bd8565b91905055508160036000600254815260200190815260200160002060006101000a81548173ffffffffffffffffffffffffffffffffffffffff021916908373ffffffffffffffffffffffffffffffffffffffff1602179055508060076000600254815260200190815260200160002081905550600460008373ffffffffffffffffffffffffffffffffffffffff1673ffffffffffffffffffffffffffffffffffffffff16815260200190815260200160002060025490806001815401808255809150506001900390600052602060002001600090919091909150556001600460008473ffffffffffffffffffffffffffffffffffffffff1673ffffffffffffffffffffffffffffffffffffffff168152602001908152602001600020805490506105d99190610c20565b600560006002548152602001908152602001600020819055506002548273ffffffffffffffffffffffffffffffffffffffff16600073ffffffffffffffffffffffffffffffffffffffff167fddf252ad1be2c89b69c2b068fc378daa952ba7f163c4a11628f55a4df523b3ef60405160405180910390a46002548273ffffffffffffffffffffffffffffffffffffffff167f08055969caa4958bed8eedfc49abfc0503d2bebf2735898fc63aca86cf35ad1f836040516106999190610888565b60405180910390a35050565b60006003600083815260200190815260200160002060009054906101000a900473ffffffffffffffffffffffffffffffffffffffff169050919050565b6000600660008373ffffffffffffffffffffffffffffffffffffffff1673ffffffffffffffffffffffffffffffffffffffff168152602001908152602001600020549050919050565b60606001805461073a90610b1a565b80601f016020809104026020016040519081016040528092919081815260200182805461076690610b1a565b80156107b35780601f10610788576101008083540402835291602001916107b3565b820191906000526020600020905b81548152906001019060200180831161079657829003601f168201915b5050505050905090565b600081519050919050565b600082825260208201905092915050565b60005b838110156107f75780820151818401526020810190506107dc565b60008484015250505050565b6000601f19601f8301169050919050565b600061081f826107bd565b61082981856107c8565b93506108398185602086016107d9565b61084281610803565b840191505092915050565b600060208201905081810360008301526108678184610814565b905092915050565b6000819050919050565b6108828161086f565b82525050565b600060208201905061089d6000830184610879565b92915050565b600080fd5b600073ffffffffffffffffffffffffffffffffffffffff82169050919050565b60006108d3826108a8565b9050919050565b6108e3816108c8565b81146108ee57600080fd5b50565b600081359050610900816108da565b92915050565b60006020828403121561091c5761091b6108a3565b5b600061092a848285016108f1565b91505092915050565b600081519050919050565b600082825260208201905092915050565b6000819050602082019050919050565b6109688161086f565b82525050565b600061097a838361095f565b60208301905092915050565b6000602082019050919050565b600061099e82610933565b6109a8818561093e565b93506109b38361094f565b8060005b838110156109e45781516109cb888261096e565b97506109d683610986565b9250506001810190506109b7565b5085935050505092915050565b60006040820190508181036000830152610a0b8185610993565b90508181036020830152610a1f8184610993565b90509392505050565b610a318161086f565b8114610a3c57600080fd5b50565b600081359050610a4e81610a28565b92915050565b600060208284031215610a6a57610a696108a3565b5b6000610a7884828501610a3f565b91505092915050565b60008060408385031215610a9857610a976108a3565b5b6000610aa6858286016108f1565b9250506020610ab785828601610a3f565b9150509250929050565b610aca816108c8565b82525050565b6000602082019050610ae56000830184610ac1565b92915050565b7f4e487b7100000000000000000000000000000000000000000000000000000000600052602260045260246000fd5b60006002820490506001821680610b3257607f821691505b602082108103610b4557610b44610aeb565b5b50919050565b7f4e487b7100000000000000000000000000000000000000000000000000000000600052604160045260246000fd5b7f4e487b7100000000000000000000000000000000000000000000000000000000600052603260045260246000fd5b7f4e487b7100000000000000000000000000000000000000000000000000000000600052601160045260246000fd5b6000610be38261086f565b91507fffffffffffffffffffffffffffffffffffffffffffffffffffffffffffffffff8203610c1557610c14610ba9565b5b600182019050919050565b6000610c2b8261086f565b9150610c368361086f565b9250828203905081811115610c4e57610c4d610ba9565b5b9291505056fea2646970667358221220ca588b88e3bc8867a02b95db03512d801475f3624e305e9a849b0e2880639c8f64736f6c63430008120033",
  "linkReferences": {},
  "deployedLinkReferences": {}
}