{
  "_format": "hh-sol-artifact-1",
  "contractName": "TreeNFT",
  "sourceName": "contracts/MetaTree.sol",
  "abi": [
    {
      "anonymous": false,
      "inputs": [
        {
          "indexed": true,
          "internalType": "address",
          "name": "owner",
          "type": "address"
        },
        {
          "indexed": true,
          "internalType": "address",
          "name": "approved",
          "type": "address"
        },
        {
          "indexed": true,
          "internalType": "uint256",
          "name": "tokenId",
          "type": "uint256"
        }
      ],
      "name": "Approval",
      "type": "event"
    },
    {
      "anonymous": false,
      "inputs": [
        {
          "indexed": true,
          "internalType": "address",
          "name": "owner",
          "type": "address"
        },
        {
          "indexed": true,
          "internalType": "uint256",
          "name": "tokenId",
          "type": "uint256"
        },
        {
          "indexed": false,
          "internalType": "uint256",
          "name": "newLevel",
          "type": "uint256"
        }
      ],
      "name": "LevelUp",
      "type": "event"
    },
    {
      "anonymous": false,
      "inputs": [
        {
          "indexed": true,
          "internalType": "address",
          "name": "from",
          "type": "address"
        },
        {
          "indexed": true,
          "internalType": "address",
          "name": "to",
          "type": "address"
        },
        {
          "indexed": true,
          "internalType": "uint256",
          "name": "tokenId",
          "type": "uint256"
        }
      ],
      "name": "Transfer",
      "type": "event"
    },
    {
      "inputs": [
        {
          "internalType": "address",
          "name": "treeOwner",
          "type": "address"
        }
      ],
      "name": "balanceOf",
      "outputs": [
        {
          "internalType": "uint256",
          "name": "",
          "type": "uint256"
        }
      ],
      "stateMutability": "view",
      "type": "function"
    },
    {
      "inputs": [
        {
          "internalType": "uint256",
          "name": "tokenId",
          "type": "uint256"
        }
      ],
      "name": "getTreeLevel",
      "outputs": [
        {
          "internalType": "uint256",
          "name": "",
          "type": "uint256"
        }
      ],
      "stateMutability": "view",
      "type": "function"
    },
    {
      "inputs": [
        {
          "internalType": "uint256",
          "name": "tokenId",
          "type": "uint256"
        }
      ],
      "name": "levelUp",
      "outputs": [],
      "stateMutability": "nonpayable",
      "type": "function"
    },
    {
      "inputs": [
        {
          "internalType": "address",
          "name": "to",
          "type": "address"
        }
      ],
      "name": "mint",
      "outputs": [],
      "stateMutability": "nonpayable",
      "type": "function"
    },
    {
      "inputs": [],
      "name": "name",
      "outputs": [
        {
          "internalType": "string",
          "name": "",
          "type": "string"
        }
      ],
      "stateMutability": "view",
      "type": "function"
    },
    {
      "inputs": [
        {
          "internalType": "uint256",
          "name": "tokenId",
          "type": "uint256"
        }
      ],
      "name": "ownerOf",
      "outputs": [
        {
          "internalType": "address",
          "name": "",
          "type": "address"
        }
      ],
      "stateMutability": "view",
      "type": "function"
    },
    {
      "inputs": [],
      "name": "symbol",
      "outputs": [
        {
          "internalType": "string",
          "name": "",
          "type": "string"
        }
      ],
      "stateMutability": "view",
      "type": "function"
    },
    {
      "inputs": [
        {
          "internalType": "address",
          "name": "treeOwner",
          "type": "address"
        }
      ],
      "name": "tokensOfOwner",
      "outputs": [
        {
          "internalType": "uint256[]",
          "name": "tokens",
          "type": "uint256[]"
        },
        {
          "internalType": "uint256[]",
          "name": "levels",
          "type": "uint256[]"
        }
      ],
      "stateMutability": "view",
      "type": "function"
    },
    {
      "inputs": [],
      "name": "totalSupply",
      "outputs": [
        {
          "internalType": "uint256",
          "name": "",
          "type": "uint256"
        }
      ],
      "stateMutability": "view",
      "type": "function"
    }
  ],
  "bytecode": "0x60806040526040518060400160405280600781526020017f547265654e465400000000000000000000000000000000000000000000000000815250600090816200004a919062000320565b506040518060400160405280600481526020017f54524545000000000000000000000000000000000000000000000000000000008152506001908162000091919062000320565b503480156200009f57600080fd5b5062000407565b600081519050919050565b7f4e487b7100000000000000000000000000000000000000000000000000000000600052604160045260246000fd5b7f4e487b7100000000000000000000000000000000000000000000000000000000600052602260045260246000fd5b600060028204905060018216806200012857607f821691505b6020821081036200013e576200013d620000e0565b5b50919050565b60008190508160005260206000209050919050565b60006020601f8301049050919050565b600082821b905092915050565b600060088302620001a87fffffffffffffffffffffffffffffffffffffffffffffffffffffffffffffffff8262000169565b620001b4868362000169565b95508019841693508086168417925050509392505050565b6000819050919050565b6000819050919050565b600062000201620001fb620001f584620001cc565b620001d6565b620001cc565b9050919050565b6000819050919050565b6200021d83620001e0565b620002356200022c8262000208565b84845462000176565b825550505050565b600090565b6200024c6200023d565b6200025981848462000212565b505050565b5b8181101562000281576200027560008262000242565b6001810190506200025f565b5050565b601f821115620002d0576200029a8162000144565b620002a58462000159565b81016020851015620002b5578190505b620002cd620002c48562000159565b8301826200025e565b50505b505050565b600082821c905092915050565b6000620002f560001984600802620002d5565b1980831691505092915050565b6000620003108383620002e2565b9150826002028217905092915050565b6200032b82620000a6565b67ffffffffffffffff811115620003475762000346620000b1565b5b6200035382546200010f565b6200036082828562000285565b600060209050601f83116001811462000398576000841562000383578287015190505b6200038f858262000302565b865550620003ff565b601f198416620003a88662000144565b60005b82811015620003d257848901518255600182019150602085019450602081019050620003ab565b86831015620003f25784890151620003ee601f891682620002e2565b8355505b6001600288020188555050505b505050505050565b610e7f80620004176000396000f3fe608060405234801561001057600080fd5b50600436106100935760003560e01c80636352211e116100665780636352211e146101205780636a6278421461015057806370a082311461016c5780638462151c1461019c57806395d89b41146101cd57610093565b806306fdde03146100985780630ce90ec2146100b657806318160ddd146100d25780632bce3fbe146100f0575b600080fd5b6100a06101eb565b6040516100ad91906109aa565b60405180910390f35b6100d060048036038101906100cb9190610a07565b61027d565b005b6100da610404565b6040516100e79190610a43565b60405180910390f35b61010a60048036038101906101059190610a07565b61040e565b6040516101179190610a43565b60405180910390f35b61013a60048036038101906101359190610a07565b61042b565b6040516101479190610a9f565b60405180910390f35b61016a60048036038101906101659190610ae6565b610468565b005b61018660048036038101906101819190610ae6565b610675565b6040516101939190610a43565b60405180910390f35b6101b660048036038101906101b19190610ae6565b6106be565b6040516101c4929190610bd1565b60405180910390f35b6101d5610888565b6040516101e291906109aa565b60405180910390f35b6060600080546101fa90610c37565b80601f016020809104026020016040519081016040528092919081815260200182805461022690610c37565b80156102735780601f1061024857610100808354040283529160200191610273565b820191906000526020600020905b81548152906001019060200180831161025657829003601f168201915b5050505050905090565b803373ffffffffffffffffffffffffffffffffffffffff166003600083815260200190815260200160002060009054906101000a900473ffffffffffffffffffffffffffffffffffffffff1673ffffffffffffffffffffffffffffffffffffffff161461031f576040517f08c379a000000000000000000000000000000000000000000000000000000000815260040161031690610cb4565b60405180910390fd5b600f600760008481526020019081526020016000205410610375576040517f08c379a000000000000000000000000000000000000000000000000000000000815260040161036c90610d20565b60405180910390fd5b60076000838152602001908152602001600020600081548092919061039990610d6f565b9190505550813373ffffffffffffffffffffffffffffffffffffffff167feec61667dd6eeecdccfef3c906e0fd047cca672804901ac4254d8545e9a426d460076000868152602001908152602001600020546040516103f89190610a43565b60405180910390a35050565b6000600254905090565b600060076000838152602001908152602001600020549050919050565b60006003600083815260200190815260200160002060009054906101000a900473ffffffffffffffffffffffffffffffffffffffff169050919050565b6002600081548092919061047b90610d6f565b9190505550600660008273ffffffffffffffffffffffffffffffffffffffff1673ffffffffffffffffffffffffffffffffffffffff16815260200190815260200160002060008154809291906104d090610d6f565b91905055508060036000600254815260200190815260200160002060006101000a81548173ffffffffffffffffffffffffffffffffffffffff021916908373ffffffffffffffffffffffffffffffffffffffff160217905550600060076000600254815260200190815260200160002081905550600460008273ffffffffffffffffffffffffffffffffffffffff1673ffffffffffffffffffffffffffffffffffffffff16815260200190815260200160002060025490806001815401808255809150506001900390600052602060002001600090919091909150556001600460008373ffffffffffffffffffffffffffffffffffffffff1673ffffffffffffffffffffffffffffffffffffffff168152602001908152602001600020805490506105fb9190610db7565b600560006002548152602001908152602001600020819055506002548173ffffffffffffffffffffffffffffffffffffffff16600073ffffffffffffffffffffffffffffffffffffffff167fddf252ad1be2c89b69c2b068fc378daa952ba7f163c4a11628f55a4df523b3ef60405160405180910390a450565b6000600660008373ffffffffffffffffffffffffffffffffffffffff1673ffffffffffffffffffffffffffffffffffffffff168152602001908152602001600020549050919050565b6060806000600660008573ffffffffffffffffffffffffffffffffffffffff1673ffffffffffffffffffffffffffffffffffffffff1681526020019081526020016000205490508067ffffffffffffffff81111561071f5761071e610deb565b5b60405190808252806020026020018201604052801561074d5781602001602082028036833780820191505090505b5092508067ffffffffffffffff81111561076a57610769610deb565b5b6040519080825280602002602001820160405280156107985781602001602082028036833780820191505090505b50915060005b8181101561088157600460008673ffffffffffffffffffffffffffffffffffffffff1673ffffffffffffffffffffffffffffffffffffffff16815260200190815260200160002081815481106107f7576107f6610e1a565b5b906000526020600020015484828151811061081557610814610e1a565b5b6020026020010181815250506007600085838151811061083857610837610e1a565b5b602002602001015181526020019081526020016000205483828151811061086257610861610e1a565b5b602002602001018181525050808061087990610d6f565b91505061079e565b5050915091565b60606001805461089790610c37565b80601f01602080910402602001604051908101604052809291908181526020018280546108c390610c37565b80156109105780601f106108e557610100808354040283529160200191610910565b820191906000526020600020905b8154815290600101906020018083116108f357829003601f168201915b5050505050905090565b600081519050919050565b600082825260208201905092915050565b60005b83811015610954578082015181840152602081019050610939565b60008484015250505050565b6000601f19601f8301169050919050565b600061097c8261091a565b6109868185610925565b9350610996818560208601610936565b61099f81610960565b840191505092915050565b600060208201905081810360008301526109c48184610971565b905092915050565b600080fd5b6000819050919050565b6109e4816109d1565b81146109ef57600080fd5b50565b600081359050610a01816109db565b92915050565b600060208284031215610a1d57610a1c6109cc565b5b6000610a2b848285016109f2565b91505092915050565b610a3d816109d1565b82525050565b6000602082019050610a586000830184610a34565b92915050565b600073ffffffffffffffffffffffffffffffffffffffff82169050919050565b6000610a8982610a5e565b9050919050565b610a9981610a7e565b82525050565b6000602082019050610ab46000830184610a90565b92915050565b610ac381610a7e565b8114610ace57600080fd5b50565b600081359050610ae081610aba565b92915050565b600060208284031215610afc57610afb6109cc565b5b6000610b0a84828501610ad1565b91505092915050565b600081519050919050565b600082825260208201905092915050565b6000819050602082019050919050565b610b48816109d1565b82525050565b6000610b5a8383610b3f565b60208301905092915050565b6000602082019050919050565b6000610b7e82610b13565b610b888185610b1e565b9350610b9383610b2f565b8060005b83811015610bc4578151610bab8882610b4e565b9750610bb683610b66565b925050600181019050610b97565b5085935050505092915050565b60006040820190508181036000830152610beb8185610b73565b90508181036020830152610bff8184610b73565b90509392505050565b7f4e487b7100000000000000000000000000000000000000000000000000000000600052602260045260246000fd5b60006002820490506001821680610c4f57607f821691505b602082108103610c6257610c61610c08565b5b50919050565b7f4e6f7420746f6b656e206f776e65720000000000000000000000000000000000600082015250565b6000610c9e600f83610925565b9150610ca982610c68565b602082019050919050565b60006020820190508181036000830152610ccd81610c91565b9050919050565b7f5472656520697320616c7265616479206174206d6178206c6576656c00000000600082015250565b6000610d0a601c83610925565b9150610d1582610cd4565b602082019050919050565b60006020820190508181036000830152610d3981610cfd565b9050919050565b7f4e487b7100000000000000000000000000000000000000000000000000000000600052601160045260246000fd5b6000610d7a826109d1565b91507fffffffffffffffffffffffffffffffffffffffffffffffffffffffffffffffff8203610dac57610dab610d40565b5b600182019050919050565b6000610dc2826109d1565b9150610dcd836109d1565b9250828203905081811115610de557610de4610d40565b5b92915050565b7f4e487b7100000000000000000000000000000000000000000000000000000000600052604160045260246000fd5b7f4e487b7100000000000000000000000000000000000000000000000000000000600052603260045260246000fdfea264697066735822122053ef995c244a25875bb8c6977be143e815e520315fb119b82905cd9d79ceb58f64736f6c63430008120033",
  "linkReferences": {},
  "deployedLinkReferences": {}
}